{
  "_format": "hh-sol-artifact-1",
  "contractName": "Marketplace",
  "sourceName": "contracts/Marketplace.sol",
  "abi": [
    {
      "inputs": [
        {
          "internalType": "address",
          "name": "_commissionAccount",
          "type": "address"
        }
      ],
      "stateMutability": "nonpayable",
      "type": "constructor"
    },
    {
      "inputs": [
        {
          "internalType": "address",
          "name": "target",
          "type": "address"
        }
      ],
      "name": "AddressEmptyCode",
      "type": "error"
    },
    {
      "inputs": [
        {
          "internalType": "address",
          "name": "account",
          "type": "address"
        }
      ],
      "name": "AddressInsufficientBalance",
      "type": "error"
    },
    {
      "inputs": [],
      "name": "EnforcedPause",
      "type": "error"
    },
    {
      "inputs": [],
      "name": "ExpectedPause",
      "type": "error"
    },
    {
      "inputs": [],
      "name": "FailedInnerCall",
      "type": "error"
    },
    {
      "inputs": [
        {
          "internalType": "address",
          "name": "owner",
          "type": "address"
        }
      ],
      "name": "OwnableInvalidOwner",
      "type": "error"
    },
    {
      "inputs": [
        {
          "internalType": "address",
          "name": "account",
          "type": "address"
        }
      ],
      "name": "OwnableUnauthorizedAccount",
      "type": "error"
    },
    {
      "inputs": [],
      "name": "ReentrancyGuardReentrantCall",
      "type": "error"
    },
    {
      "inputs": [
        {
          "internalType": "address",
          "name": "token",
          "type": "address"
        }
      ],
      "name": "SafeERC20FailedOperation",
      "type": "error"
    },
    {
      "anonymous": false,
      "inputs": [
        {
          "indexed": true,
          "internalType": "address",
          "name": "previousOwner",
          "type": "address"
        },
        {
          "indexed": true,
          "internalType": "address",
          "name": "newOwner",
          "type": "address"
        }
      ],
      "name": "OwnershipTransferred",
      "type": "event"
    },
    {
      "anonymous": false,
      "inputs": [
        {
          "indexed": false,
          "internalType": "address",
          "name": "account",
          "type": "address"
        }
      ],
      "name": "Paused",
      "type": "event"
    },
    {
      "anonymous": false,
      "inputs": [
        {
          "indexed": true,
          "internalType": "contract IERC1155",
          "name": "_nftAddress",
          "type": "address"
        },
        {
          "indexed": true,
          "internalType": "uint256",
          "name": "_tokenId",
          "type": "uint256"
        },
        {
          "indexed": true,
          "internalType": "address",
          "name": "_seller",
          "type": "address"
        },
        {
          "indexed": false,
          "internalType": "uint256",
          "name": "_listingId",
          "type": "uint256"
        }
      ],
      "name": "TokenDelisted",
      "type": "event"
    },
    {
      "anonymous": false,
      "inputs": [
        {
          "indexed": true,
          "internalType": "contract IERC1155",
          "name": "_nftAddress",
          "type": "address"
        },
        {
          "indexed": true,
          "internalType": "uint256",
          "name": "_tokenId",
          "type": "uint256"
        },
        {
          "indexed": true,
          "internalType": "address",
          "name": "_seller",
          "type": "address"
        },
        {
          "indexed": false,
          "internalType": "uint256",
          "name": "_listingId",
          "type": "uint256"
        },
        {
          "indexed": false,
          "internalType": "uint256",
          "name": "amount",
          "type": "uint256"
        },
        {
          "indexed": false,
          "internalType": "contract IERC20",
          "name": "_paymentToken",
          "type": "address"
        },
        {
          "indexed": false,
          "internalType": "uint256",
          "name": "_price",
          "type": "uint256"
        }
      ],
      "name": "TokenListed",
      "type": "event"
    },
    {
      "anonymous": false,
      "inputs": [
        {
          "indexed": true,
          "internalType": "contract IERC1155",
          "name": "_nftAddress",
          "type": "address"
        },
        {
          "indexed": true,
          "internalType": "uint256",
          "name": "_tokenId",
          "type": "uint256"
        },
        {
          "indexed": true,
          "internalType": "address",
          "name": "_seller",
          "type": "address"
        },
        {
          "indexed": false,
          "internalType": "address",
          "name": "_buyer",
          "type": "address"
        },
        {
          "indexed": false,
          "internalType": "uint256",
          "name": "_listingId",
          "type": "uint256"
        },
        {
          "indexed": false,
          "internalType": "uint256",
          "name": "_amount",
          "type": "uint256"
        },
        {
          "indexed": false,
          "internalType": "contract IERC20",
          "name": "_paymentToken",
          "type": "address"
        },
        {
          "indexed": false,
          "internalType": "uint256",
          "name": "_price",
          "type": "uint256"
        }
      ],
      "name": "TokenPurchased",
      "type": "event"
    },
    {
      "anonymous": false,
      "inputs": [
        {
          "indexed": false,
          "internalType": "address",
          "name": "account",
          "type": "address"
        }
      ],
      "name": "Unpaused",
      "type": "event"
    },
    {
      "inputs": [],
      "name": "PLATFORM_FEE_TIMELOCK",
      "outputs": [
        {
          "internalType": "uint256",
          "name": "",
          "type": "uint256"
        }
      ],
      "stateMutability": "view",
      "type": "function"
    },
    {
      "inputs": [],
      "name": "applyPlatformFeePercentageIncrease",
      "outputs": [],
      "stateMutability": "nonpayable",
      "type": "function"
    },
    {
      "inputs": [
        {
          "internalType": "contract IERC1155",
          "name": "_nftAddress",
          "type": "address"
        },
        {
          "internalType": "uint256",
          "name": "_tokenId",
          "type": "uint256"
        },
        {
          "internalType": "uint256",
          "name": "_listingId",
          "type": "uint256"
        },
        {
          "internalType": "uint256",
          "name": "_amount",
          "type": "uint256"
        },
        {
          "internalType": "uint256",
          "name": "_expectedPrice",
          "type": "uint256"
        }
      ],
      "name": "buyToken",
      "outputs": [],
      "stateMutability": "payable",
      "type": "function"
    },
    {
      "inputs": [],
      "name": "commissionAccount",
      "outputs": [
        {
          "internalType": "address",
          "name": "",
          "type": "address"
        }
      ],
      "stateMutability": "view",
      "type": "function"
    },
    {
      "inputs": [
        {
          "internalType": "uint16",
          "name": "_lowerFeePercentage",
          "type": "uint16"
        }
      ],
      "name": "decreasePlatformFeePercentage",
      "outputs": [],
      "stateMutability": "nonpayable",
      "type": "function"
    },
    {
      "inputs": [
        {
          "internalType": "contract IERC1155",
          "name": "_nftAddress",
          "type": "address"
        },
        {
          "internalType": "uint256",
          "name": "_tokenId",
          "type": "uint256"
        },
        {
          "internalType": "uint256",
          "name": "_listingId",
          "type": "uint256"
        }
      ],
      "name": "delistToken",
      "outputs": [],
      "stateMutability": "nonpayable",
      "type": "function"
    },
    {
      "inputs": [
        {
          "internalType": "contract IERC1155",
          "name": "_nftAddress",
          "type": "address"
        },
        {
          "internalType": "uint256",
          "name": "_tokenId",
          "type": "uint256"
        },
        {
          "internalType": "uint256",
          "name": "_listingId",
          "type": "uint256"
        },
        {
          "internalType": "uint256",
          "name": "_price",
          "type": "uint256"
        },
        {
          "internalType": "int256",
          "name": "_amount",
          "type": "int256"
        },
        {
          "internalType": "int256",
          "name": "_expectedAmount",
          "type": "int256"
        }
      ],
      "name": "editListing",
      "outputs": [],
      "stateMutability": "nonpayable",
      "type": "function"
    },
    {
      "inputs": [
        {
          "internalType": "contract IERC1155",
          "name": "_nftAddress",
          "type": "address"
        },
        {
          "internalType": "uint256",
          "name": "_tokenId",
          "type": "uint256"
        },
        {
          "internalType": "uint256",
          "name": "_listingId",
          "type": "uint256"
        }
      ],
      "name": "getListing",
      "outputs": [
        {
          "components": [
            {
              "internalType": "contract IERC20",
              "name": "paymentToken",
              "type": "address"
            },
            {
              "internalType": "uint256",
              "name": "price",
              "type": "uint256"
            },
            {
              "internalType": "address",
              "name": "seller",
              "type": "address"
            },
            {
              "internalType": "uint256",
              "name": "amount",
              "type": "uint256"
            }
          ],
          "internalType": "struct Marketplace.Listing",
          "name": "",
          "type": "tuple"
        }
      ],
      "stateMutability": "view",
      "type": "function"
    },
    {
      "inputs": [
        {
          "internalType": "contract IERC1155",
          "name": "_nftAddress",
          "type": "address"
        },
        {
          "internalType": "uint256",
          "name": "_tokenId",
          "type": "uint256"
        },
        {
          "internalType": "contract IERC20",
          "name": "_paymentToken",
          "type": "address"
        },
        {
          "internalType": "uint256",
          "name": "_price",
          "type": "uint256"
        },
        {
          "internalType": "uint256",
          "name": "_amount",
          "type": "uint256"
        }
      ],
      "name": "listToken",
      "outputs": [],
      "stateMutability": "nonpayable",
      "type": "function"
    },
    {
      "inputs": [
        {
          "internalType": "contract IERC1155",
          "name": "",
          "type": "address"
        },
        {
          "internalType": "uint256",
          "name": "",
          "type": "uint256"
        }
      ],
      "name": "listingCount",
      "outputs": [
        {
          "internalType": "uint256",
          "name": "",
          "type": "uint256"
        }
      ],
      "stateMutability": "view",
      "type": "function"
    },
    {
      "inputs": [
        {
          "internalType": "contract IERC1155",
          "name": "",
          "type": "address"
        },
        {
          "internalType": "uint256",
          "name": "",
          "type": "uint256"
        },
        {
          "internalType": "uint256",
          "name": "",
          "type": "uint256"
        }
      ],
      "name": "listings",
      "outputs": [
        {
          "internalType": "contract IERC20",
          "name": "paymentToken",
          "type": "address"
        },
        {
          "internalType": "uint256",
          "name": "price",
          "type": "uint256"
        },
        {
          "internalType": "address",
          "name": "seller",
          "type": "address"
        },
        {
          "internalType": "uint256",
          "name": "amount",
          "type": "uint256"
        }
      ],
      "stateMutability": "view",
      "type": "function"
    },
    {
      "inputs": [],
      "name": "lock",
      "outputs": [
        {
          "internalType": "uint256",
          "name": "",
          "type": "uint256"
        }
      ],
      "stateMutability": "view",
      "type": "function"
    },
    {
      "inputs": [],
      "name": "newPlatformFeePercentage",
      "outputs": [
        {
          "internalType": "uint16",
          "name": "",
          "type": "uint16"
        }
      ],
      "stateMutability": "view",
      "type": "function"
    },
    {
      "inputs": [],
      "name": "owner",
      "outputs": [
        {
          "internalType": "address",
          "name": "",
          "type": "address"
        }
      ],
      "stateMutability": "view",
      "type": "function"
    },
    {
      "inputs": [],
      "name": "pause",
      "outputs": [],
      "stateMutability": "nonpayable",
      "type": "function"
    },
    {
      "inputs": [],
      "name": "paused",
      "outputs": [
        {
          "internalType": "bool",
          "name": "",
          "type": "bool"
        }
      ],
      "stateMutability": "view",
      "type": "function"
    },
    {
      "inputs": [],
      "name": "platformFeePercentage",
      "outputs": [
        {
          "internalType": "uint16",
          "name": "",
          "type": "uint16"
        }
      ],
      "stateMutability": "view",
      "type": "function"
    },
    {
      "inputs": [],
      "name": "renounceOwnership",
      "outputs": [],
      "stateMutability": "nonpayable",
      "type": "function"
    },
    {
      "inputs": [
        {
          "internalType": "uint16",
          "name": "_higherFeePercentage",
          "type": "uint16"
        }
      ],
      "name": "requestPlatformFeePercentageIncrease",
      "outputs": [],
      "stateMutability": "nonpayable",
      "type": "function"
    },
    {
      "inputs": [
        {
          "internalType": "address",
          "name": "_commissionAccount",
          "type": "address"
        }
      ],
      "name": "setCommissionAccount",
      "outputs": [],
      "stateMutability": "nonpayable",
      "type": "function"
    },
    {
      "inputs": [
        {
          "internalType": "address",
          "name": "newOwner",
          "type": "address"
        }
      ],
      "name": "transferOwnership",
      "outputs": [],
      "stateMutability": "nonpayable",
      "type": "function"
    },
    {
      "inputs": [],
      "name": "unpause",
      "outputs": [],
      "stateMutability": "nonpayable",
      "type": "function"
    }
  ],
  "bytecode": "0x60806040526000805461ffff60a81b1916607d60aa1b1781556002556003805461ffff191690556001600160ff1b036005553480156200003e57600080fd5b506040516200238938038062002389833981016040819052620000619162000122565b6000805460ff191690558033806200009357604051631e4fbdf760e01b81526000600482015260240160405180910390fd5b6200009e81620000c9565b50600180546001600160a01b0319166001600160a01b03929092169190911781556004555062000154565b600080546001600160a01b03838116610100818102610100600160a81b0319851617855560405193049190911692909183917f8be0079c531659141344cd1fd0a4f28419497f9722a3daafe3b4186f6b6457e091a35050565b6000602082840312156200013557600080fd5b81516001600160a01b03811681146200014d57600080fd5b9392505050565b61222580620001646000396000f3fe6080604052600436106101355760003560e01c80638da5cb5b116100ab578063ca5454921161006f578063ca5454921461040a578063cdd78cfc1461042a578063ed70994b1461044c578063f1929d5a1461046c578063f2fde38b14610483578063f83d08ba146104a357600080fd5b80638da5cb5b146103155780638e9d03091461034c578063900001a81461036c578063aa268f041461038c578063bf617180146103ac57600080fd5b80635c975abb116100fd5780635c975abb146101f15780636bf9de8014610214578063715018a6146102425780637a4e5cd2146102575780637d3b48ea1461026a5780638456cb591461030057600080fd5b806315557bdf1461013a5780631747f4d91461015c57806329809cb7146101a75780633e55177d146101bc5780633f4ba83a146101dc575b600080fd5b34801561014657600080fd5b5061015a610155366004611e08565b6104b9565b005b34801561016857600080fd5b50610194610177366004611e54565b600760209081526000928352604080842090915290825290205481565b6040519081526020015b60405180910390f35b3480156101b357600080fd5b5061015a610a89565b3480156101c857600080fd5b5061015a6101d7366004611e80565b610bc1565b3480156101e857600080fd5b5061015a610beb565b3480156101fd57600080fd5b5060005460ff16604051901515815260200161019e565b34801561022057600080fd5b5060035461022f9061ffff1681565b60405161ffff909116815260200161019e565b34801561024e57600080fd5b5061015a610bfd565b61015a610265366004611e9d565b610c0f565b34801561027657600080fd5b506102cb610285366004611ee1565b600660209081526000938452604080852082529284528284209052825290208054600182015460028301546003909301546001600160a01b039283169391929091169084565b60405161019e94939291906001600160a01b039485168152602081019390935292166040820152606081019190915260800190565b34801561030c57600080fd5b5061015a611220565b34801561032157600080fd5b5060005461010090046001600160a01b03165b6040516001600160a01b03909116815260200161019e565b34801561035857600080fd5b5061015a610367366004611f16565b611230565b34801561037857600080fd5b5061015a610387366004611f3a565b611306565b34801561039857600080fd5b5061015a6103a7366004611f16565b6115ea565b3480156103b857600080fd5b506103cc6103c7366004611ee1565b6116c6565b6040805182516001600160a01b039081168252602080850151908301528383015116918101919091526060918201519181019190915260800161019e565b34801561041657600080fd5b5061015a610425366004611ee1565b61174b565b34801561043657600080fd5b5060005461022f90600160a81b900461ffff1681565b34801561045857600080fd5b50600154610334906001600160a01b031681565b34801561047857600080fd5b5061019462093a8081565b34801561048f57600080fd5b5061015a61049e366004611e80565b6117fe565b3480156104af57600080fd5b5061019460025481565b6104c161183c565b6104c9611860565b6001600160a01b038681166000908152600660209081526040808320898452825280832088845290915290206002015416331461055d5760405162461bcd60e51b815260206004820152602760248201527f4d61726b6574706c6163653a2063616e206f6e6c792065646974206f776e206c604482015266697374696e677360c81b60648201526084015b60405180910390fd5b60405163e985e9c560e01b81523360048201523060248201526001600160a01b0387169063e985e9c590604401602060405180830381865afa1580156105a7573d6000803e3d6000fd5b505050506040513d601f19601f820116820180604052508101906105cb9190611f8c565b6105e75760405162461bcd60e51b815260040161055490611fae565b8160001914806106635750604051627eeac760e11b8152336004820152602481018690526001600160a01b0387169062fdd58e90604401602060405180830381865afa15801561063b573d6000803e3d6000fd5b505050506040513d601f19601f8201168201806040525081019061065f9190611fff565b8213155b61067f5760405162461bcd60e51b815260040161055490612018565b600082138061068f575081600019145b6107115760405162461bcd60e51b815260206004820152604760248201527f4d61726b6574706c6163653a20616d6f756e74206d757374206265206772656160448201527f746572207468616e2030206f7220657175616c20746f202d3120666f72206e6f606482015266206368616e676560c81b608482015260a401610554565b6005548213156107335760405162461bcd60e51b81526004016105549061205e565b600083116107535760405162461bcd60e51b8152600401610554906120bb565b80600019146108805760008112156107ef5760405162461bcd60e51b815260206004820152605360248201527f4d61726b6574706c6163653a20657870656374656420616d6f756e74206d757360448201527f742062652067726561746572207468616e206f7220657175616c20746f20302c606482015272206f72202d3120666f72206e6f20636865636b60681b608482015260a401610554565b6001600160a01b0386166000908152600660209081526040808320888452825280832087845290915290206003015481146108805760405162461bcd60e51b815260206004820152602b60248201527f4d61726b6574706c6163653a20657870656374656420616d6f756e7420646f6560448201526a0e640dcdee840dac2e8c6d60ab1b6064820152608401610554565b81196108b8576001600160a01b0386166000908152600660209081526040808320888452825280832087845290915290206003015491505b600060066000886001600160a01b03166001600160a01b031681526020019081526020016000206000878152602001908152602001600020600086815260200190815260200160002060000160009054906101000a90046001600160a01b031690506040518060800160405280826001600160a01b03168152602001858152602001336001600160a01b031681526020018481525060066000896001600160a01b03166001600160a01b031681526020019081526020016000206000888152602001908152602001600020600087815260200190815260200160002060008201518160000160006101000a8154816001600160a01b0302191690836001600160a01b031602179055506020820151816001015560408201518160020160006101000a8154816001600160a01b0302191690836001600160a01b0316021790555060608201518160030155905050336001600160a01b031686886001600160a01b03167f3ef67979eecbdbc9ed46a84e1e88f1f3fa5b4a2a52013b0113c079f3cbebf0658887868a604051610a6e949392919093845260208401929092526001600160a01b03166040830152606082015260800190565b60405180910390a450610a816001600455565b505050505050565b610a9161188a565b600254600003610b1a5760405162461bcd60e51b815260206004820152604860248201527f4e4654436f6d6d697373696f6e733a20706c6174666f726d206665652070657260448201527f63656e7461676520696e637265617365206d7573742062652066697273742072606482015267195c5d595cdd195960c21b608482015260a401610554565b600254421015610b925760405162461bcd60e51b815260206004820152603a60248201527f4e4654436f6d6d697373696f6e733a20706c6174666f726d206665652070657260448201527f63656e7461676520696e637265617365206973206c6f636b65640000000000006064820152608401610554565b6000600281905560038054825461ffff60a81b191661ffff8216600160a81b021790925561ffff199091169055565b610bc961188a565b600180546001600160a01b0319166001600160a01b0392909216919091179055565b610bf361188a565b610bfb6118bd565b565b610c0561188a565b610bfb600061190f565b610c1761183c565b610c1f611860565b60008211610c835760405162461bcd60e51b815260206004820152602b60248201527f4d61726b6574706c6163653a205f616d6f756e74206d7573742062652067726560448201526a061746572207468616e20360ac1b6064820152608401610554565b6001600160a01b038581166000908152600660209081526040808320888452825280832087845290915290206002015416610d265760405162461bcd60e51b815260206004820152603860248201527f4d61726b6574706c6163653a2063616e6e6f7420696e7465726163742077697460448201527f682061206e6f6e2d6578697374656e74206c697374696e6700000000000000006064820152608401610554565b6001600160a01b038581166000908152600660209081526040808320888452825280832087845290915290206002015433911603610db45760405162461bcd60e51b815260206004820152602560248201527f4d61726b6574706c6163653a2063616e6e6f74206275792066726f6d20796f756044820152643939b2b63360d91b6064820152608401610554565b6001600160a01b03851660009081526006602090815260408083208784528252808320868452909152902060030154821115610e405760405162461bcd60e51b815260206004820152602560248201527f4d61726b6574706c6163653a206e6f7420656e6f75676820746f6b656e7320746044820152646f2062757960d81b6064820152608401610554565b6001600160a01b038581166000818152600660209081526040808320898452825280832088845290915290819020600201549051627eeac760e11b8152921660048301819052602483018790529162fdd58e90604401602060405180830381865afa158015610eb3573d6000803e3d6000fd5b505050506040513d601f19601f82011682018060405250810190610ed79190611fff565b831115610f3e5760405162461bcd60e51b815260206004820152602f60248201527f4d61726b6574706c6163653a2073656c6c657220646f6573206e6f742068617660448201526e6520656e6f75676820746f6b656e7360881b6064820152608401610554565b6001600160a01b03868116600090815260066020908152604080832089845282528083208884529091529020805460019091015491169083811115610fc55760405162461bcd60e51b815260206004820152601b60248201527f4d61726b6574706c6163653a20707269636520746f6f206869676800000000006044820152606401610554565b610fcf858261211a565b604051636eb1769f60e11b81523360048201523060248201526001600160a01b0384169063dd62ed3e90604401602060405180830381865afa158015611019573d6000803e3d6000fd5b505050506040513d601f19601f8201168201806040525081019061103d9190611fff565b10156110955760405162461bcd60e51b815260206004820152602160248201527f4d61726b6574706c6163653a206e6f7420656e6f75676820616c6c6f77616e636044820152606560f81b6064820152608401610554565b6001600160a01b03881660009081526006602090815260408083208a84528252808320898452909152812060030180548792906110d3908490612131565b90915550506001600160a01b03881660009081526006602090815260408083208a84528252808320898452909152812060030154900361111857611118888888611968565b60408051338152602081018890529081018690526001600160a01b038381166060830152608082018390528085169189918b16907fc24a45f54d2b5b686d018effd229e8eee1e13bc4c1acc29ad844624449a7eaa79060a00160405180910390a461118f8888858561118a8a8761211a565b611a0c565b604051637921219560e11b81526001600160a01b038481166004830152336024830152604482018990526064820187905260a06084830152600060a483015289169063f242432a9060c401600060405180830381600087803b1580156111f457600080fd5b505af1158015611208573d6000803e3d6000fd5b505050505050506112196001600455565b5050505050565b61122861188a565b610bfb611b97565b61123861188a565b60005461ffff600160a81b9091048116908216106112e45760405162461bcd60e51b815260206004820152605a60248201527f4e4654436f6d6d697373696f6e733a205f6c6f77657246656550657263656e7460448201527f616765206d757374206265206c6f776572207468616e2074686520637572726560648201527f6e7420706c6174666f726d206665652070657263656e74616765000000000000608482015260a401610554565b6000805461ffff909216600160a81b0261ffff60a81b19909216919091179055565b61130e61183c565b611316611860565b60405163e985e9c560e01b81523360048201523060248201526001600160a01b0386169063e985e9c590604401602060405180830381865afa158015611360573d6000803e3d6000fd5b505050506040513d601f19601f820116820180604052508101906113849190611f8c565b6113a05760405162461bcd60e51b815260040161055490611fae565b604051627eeac760e11b8152336004820152602481018590526001600160a01b0386169062fdd58e90604401602060405180830381865afa1580156113e9573d6000803e3d6000fd5b505050506040513d601f19601f8201168201806040525081019061140d9190611fff565b81111561142c5760405162461bcd60e51b815260040161055490612018565b6000811161148f5760405162461bcd60e51b815260206004820152602a60248201527f4d61726b6574706c6163653a20616d6f756e74206d75737420626520677265616044820152690746572207468616e20360b41b6064820152608401610554565b6005548111156114b15760405162461bcd60e51b81526004016105549061205e565b600082116114d15760405162461bcd60e51b8152600401610554906120bb565b6001600160a01b038086166000818152600760209081526040808320898452808352818420805483516080810185528b891681528086018b815233828701908152606083018c8152998952600688528689208f8a528852868920848a52885295882091518254908b166001600160a01b031991821617835590516001830155945160028201805491909a16951694909417909755945160039092019190915588835290528154919061158283612144565b909155505060408051828152602081018490526001600160a01b038681168284015260608201869052915133928892908a16917f3ef67979eecbdbc9ed46a84e1e88f1f3fa5b4a2a52013b0113c079f3cbebf0659181900360800190a4506112196001600455565b6115f261188a565b60005461ffff600160a81b90910481169082161161169e5760405162461bcd60e51b815260206004820152605c60248201527f4e4654436f6d6d697373696f6e733a205f68696768657246656550657263656e60448201527f74616765206d75737420626520686967686572207468616e207468652063757260648201527f72656e7420706c6174666f726d206665652070657263656e7461676500000000608482015260a401610554565b6116ab62093a804261215d565b6002556003805461ffff191661ffff92909216919091179055565b60408051608080820183526000808352602080840182905283850182905260609384018290526001600160a01b03888116835260068252858320888452825285832087845282529185902085519384018652805483168452600181015491840191909152600281015490911693820193909352600390920154908201525b9392505050565b611753611860565b6001600160a01b03838116600090815260066020908152604080832086845282528083208584529091529020600201541633146117e45760405162461bcd60e51b815260206004820152602960248201527f4d61726b6574706c6163653a2063616e206f6e6c792064656c697374206f776e604482015268206c697374696e677360b81b6064820152608401610554565b6117ef838383611968565b6117f96001600455565b505050565b61180661188a565b6001600160a01b03811661183057604051631e4fbdf760e01b815260006004820152602401610554565b6118398161190f565b50565b60005460ff1615610bfb5760405163d93c066560e01b815260040160405180910390fd5b60026004540361188357604051633ee5aeb560e01b815260040160405180910390fd5b6002600455565b6000546001600160a01b03610100909104163314610bfb5760405163118cdaa760e01b8152336004820152602401610554565b6118c5611bd4565b6000805460ff191690557f5db9ee0a495bf2e6ff9c91a7834c1ba4fdd244a5e8aa4e537bd38aeae4b073aa335b6040516001600160a01b03909116815260200160405180910390a1565b600080546001600160a01b03838116610100818102610100600160a81b0319851617855560405193049190911692909183917f8be0079c531659141344cd1fd0a4f28419497f9722a3daafe3b4186f6b6457e091a35050565b6001600160a01b03831660009081526006602090815260408083208584528252808320848452909152812080546001600160a01b0319908116825560018201839055600282018054909116905560030155336001600160a01b031682846001600160a01b03167ffa35030c3c7d834268ab6e51b6af06e24b8f502f8fde9c54ed6ba28f36f0e3cb846040516119ff91815260200190565b60405180910390a4505050565b6000805461271090611a2990600160a81b900461ffff168461211a565b611a339190612170565b90506000611a418284612131565b6040516301ffc9a760e01b815263152a902d60e11b600482015290915060009081906001600160a01b038a16906301ffc9a790602401602060405180830381865afa158015611a94573d6000803e3d6000fd5b505050506040513d601f19601f82011682018060405250810190611ab89190611f8c565b15611b325760405163152a902d60e11b815260048101899052602481018490526001600160a01b038a1690632a55205a906044016040805180830381865afa158015611b08573d6000803e3d6000fd5b505050506040513d601f19601f82011682018060405250810190611b2c9190612192565b90925090505b828115611b5a57611b438282612131565b9050611b5a6001600160a01b038816338585611bf7565b600154611b76906001600160a01b038981169133911688611bf7565b611b8b6001600160a01b038816338a84611bf7565b50505050505050505050565b611b9f61183c565b6000805460ff191660011790557f62e78cea01bee320cd4e420270b5ea74000d11b0c9f74754ebdbfc544b05a2586118f23390565b60005460ff16610bfb57604051638dfc202b60e01b815260040160405180910390fd5b604080516001600160a01b0385811660248301528416604482015260648082018490528251808303909101815260849091019091526020810180516001600160e01b03166323b872dd60e01b179052611c51908590611c57565b50505050565b6000611c6c6001600160a01b03841683611cba565b90508051600014158015611c91575080806020019051810190611c8f9190611f8c565b155b156117f957604051635274afe760e01b81526001600160a01b0384166004820152602401610554565b6060611cc883836000611cd1565b90505b92915050565b606081471015611cf65760405163cd78605960e01b8152306004820152602401610554565b600080856001600160a01b03168486604051611d1291906121c0565b60006040518083038185875af1925050503d8060008114611d4f576040519150601f19603f3d011682016040523d82523d6000602084013e611d54565b606091505b5091509150611d64868383611d6e565b9695505050505050565b606082611d8357611d7e82611dca565b611744565b8151158015611d9a57506001600160a01b0384163b155b15611dc357604051639996b31560e01b81526001600160a01b0385166004820152602401610554565b5080611744565b805115611dda5780518082602001fd5b604051630a12f52160e11b815260040160405180910390fd5b6001600160a01b038116811461183957600080fd5b60008060008060008060c08789031215611e2157600080fd5b8635611e2c81611df3565b9860208801359850604088013597606081013597506080810135965060a00135945092505050565b60008060408385031215611e6757600080fd5b8235611e7281611df3565b946020939093013593505050565b600060208284031215611e9257600080fd5b813561174481611df3565b600080600080600060a08688031215611eb557600080fd5b8535611ec081611df3565b97602087013597506040870135966060810135965060800135945092505050565b600080600060608486031215611ef657600080fd5b8335611f0181611df3565b95602085013595506040909401359392505050565b600060208284031215611f2857600080fd5b813561ffff8116811461174457600080fd5b600080600080600060a08688031215611f5257600080fd5b8535611f5d81611df3565b9450602086013593506040860135611f7481611df3565b94979396509394606081013594506080013592915050565b600060208284031215611f9e57600080fd5b8151801515811461174457600080fd5b60208082526031908201527f4d61726b6574706c6163653a204d61726b6574706c61636520636f6e747261636040820152701d081a5cc81b9bdd08185c1c1c9bdd9959607a1b606082015260800190565b60006020828403121561201157600080fd5b5051919050565b60208082526026908201527f4d61726b6574706c6163653a206e6f7420656e6f75676820746f6b656e7320746040820152651bc81b1a5cdd60d21b606082015260800190565b6020808252603c908201527f4d61726b6574706c6163653a20616d6f756e74206d757374206265206c65737360408201527f207468616e206f7220657175616c20746f204d41585f414d4f554e5400000000606082015260800190565b60208082526029908201527f4d61726b6574706c6163653a207072696365206d75737420626520677265617460408201526806572207468616e20360bc1b606082015260800190565b634e487b7160e01b600052601160045260246000fd5b8082028115828204841417611ccb57611ccb612104565b81810381811115611ccb57611ccb612104565b60006001820161215657612156612104565b5060010190565b80820180821115611ccb57611ccb612104565b60008261218d57634e487b7160e01b600052601260045260246000fd5b500490565b600080604083850312156121a557600080fd5b82516121b081611df3565b6020939093015192949293505050565b6000825160005b818110156121e157602081860181015185830152016121c7565b50600092019182525091905056fea2646970667358221220b2a823be31bfa69e04eaedb7aa1fa1b2861578aa3f769cb0d0b4b654cbbaf37764736f6c63430008180033",
  "linkReferences": {},
  "deployedLinkReferences": {}
}