{
    "_format": "hh-sol-artifact-1",
    "contractName": "Marketplace",
    "sourceName": "contracts/Marketplace.sol",
    "abi": [
        {
            "inputs": [
                {
                    "internalType": "address",
                    "name": "_commissionAccount",
                    "type": "address"
                }
            ],
            "stateMutability": "nonpayable",
            "type": "constructor"
        },
        {
            "inputs": [
                {
                    "internalType": "address",
                    "name": "target",
                    "type": "address"
                }
            ],
            "name": "AddressEmptyCode",
            "type": "error"
        },
        {
            "inputs": [
                {
                    "internalType": "address",
                    "name": "account",
                    "type": "address"
                }
            ],
            "name": "AddressInsufficientBalance",
            "type": "error"
        },
        {
            "inputs": [],
            "name": "EnforcedPause",
            "type": "error"
        },
        {
            "inputs": [],
            "name": "ExpectedPause",
            "type": "error"
        },
        {
            "inputs": [],
            "name": "FailedInnerCall",
            "type": "error"
        },
        {
            "inputs": [
                {
                    "internalType": "address",
                    "name": "owner",
                    "type": "address"
                }
            ],
            "name": "OwnableInvalidOwner",
            "type": "error"
        },
        {
            "inputs": [
                {
                    "internalType": "address",
                    "name": "account",
                    "type": "address"
                }
            ],
            "name": "OwnableUnauthorizedAccount",
            "type": "error"
        },
        {
            "inputs": [],
            "name": "ReentrancyGuardReentrantCall",
            "type": "error"
        },
        {
            "inputs": [
                {
                    "internalType": "address",
                    "name": "token",
                    "type": "address"
                }
            ],
            "name": "SafeERC20FailedOperation",
            "type": "error"
        },
        {
            "anonymous": false,
            "inputs": [
                {
                    "indexed": true,
                    "internalType": "address",
                    "name": "previousOwner",
                    "type": "address"
                },
                {
                    "indexed": true,
                    "internalType": "address",
                    "name": "newOwner",
                    "type": "address"
                }
            ],
            "name": "OwnershipTransferred",
            "type": "event"
        },
        {
            "anonymous": false,
            "inputs": [
                {
                    "indexed": false,
                    "internalType": "address",
                    "name": "account",
                    "type": "address"
                }
            ],
            "name": "Paused",
            "type": "event"
        },
        {
            "anonymous": false,
            "inputs": [
                {
                    "indexed": true,
                    "internalType": "contract IERC1155",
                    "name": "_nftAddress",
                    "type": "address"
                },
                {
                    "indexed": true,
                    "internalType": "uint256",
                    "name": "_tokenId",
                    "type": "uint256"
                },
                {
                    "indexed": true,
                    "internalType": "address",
                    "name": "_seller",
                    "type": "address"
                },
                {
                    "indexed": false,
                    "internalType": "uint256",
                    "name": "_listingId",
                    "type": "uint256"
                }
            ],
            "name": "TokenDelisted",
            "type": "event"
        },
        {
            "anonymous": false,
            "inputs": [
                {
                    "indexed": true,
                    "internalType": "contract IERC1155",
                    "name": "_nftAddress",
                    "type": "address"
                },
                {
                    "indexed": true,
                    "internalType": "uint256",
                    "name": "_tokenId",
                    "type": "uint256"
                },
                {
                    "indexed": true,
                    "internalType": "address",
                    "name": "_seller",
                    "type": "address"
                },
                {
                    "indexed": false,
                    "internalType": "uint256",
                    "name": "_listingId",
                    "type": "uint256"
                },
                {
                    "indexed": false,
                    "internalType": "uint256",
                    "name": "amount",
                    "type": "uint256"
                },
                {
                    "indexed": false,
                    "internalType": "contract IERC20",
                    "name": "_paymentToken",
                    "type": "address"
                },
                {
                    "indexed": false,
                    "internalType": "uint256",
                    "name": "_price",
                    "type": "uint256"
                }
            ],
            "name": "TokenListed",
            "type": "event"
        },
        {
            "anonymous": false,
            "inputs": [
                {
                    "indexed": true,
                    "internalType": "contract IERC1155",
                    "name": "_nftAddress",
                    "type": "address"
                },
                {
                    "indexed": true,
                    "internalType": "uint256",
                    "name": "_tokenId",
                    "type": "uint256"
                },
                {
                    "indexed": true,
                    "internalType": "address",
                    "name": "_seller",
                    "type": "address"
                },
                {
                    "indexed": false,
                    "internalType": "address",
                    "name": "_buyer",
                    "type": "address"
                },
                {
                    "indexed": false,
                    "internalType": "uint256",
                    "name": "_listingId",
                    "type": "uint256"
                },
                {
                    "indexed": false,
                    "internalType": "uint256",
                    "name": "_amount",
                    "type": "uint256"
                },
                {
                    "indexed": false,
                    "internalType": "uint256",
                    "name": "_price",
                    "type": "uint256"
                }
            ],
            "name": "TokenPurchased",
            "type": "event"
        },
        {
            "anonymous": false,
            "inputs": [
                {
                    "indexed": false,
                    "internalType": "address",
                    "name": "account",
                    "type": "address"
                }
            ],
            "name": "Unpaused",
            "type": "event"
        },
        {
            "inputs": [],
            "name": "PLATFORM_FEE_TIMELOCK",
            "outputs": [
                {
                    "internalType": "uint256",
                    "name": "",
                    "type": "uint256"
                }
            ],
            "stateMutability": "view",
            "type": "function"
        },
        {
            "inputs": [],
            "name": "applyPlatformFeePercentageIncrease",
            "outputs": [],
            "stateMutability": "nonpayable",
            "type": "function"
        },
        {
            "inputs": [
                {
                    "internalType": "contract IERC1155",
                    "name": "_nftAddress",
                    "type": "address"
                },
                {
                    "internalType": "uint256",
                    "name": "_tokenId",
                    "type": "uint256"
                },
                {
                    "internalType": "uint256",
                    "name": "_listingId",
                    "type": "uint256"
                },
                {
                    "internalType": "uint256",
                    "name": "_amount",
                    "type": "uint256"
                },
                {
                    "internalType": "contract IERC20",
                    "name": "_expectedPaymentToken",
                    "type": "address"
                },
                {
                    "internalType": "uint256",
                    "name": "_expectedPrice",
                    "type": "uint256"
                }
            ],
            "name": "buyToken",
            "outputs": [],
            "stateMutability": "payable",
            "type": "function"
        },
        {
            "inputs": [],
            "name": "commissionAccount",
            "outputs": [
                {
                    "internalType": "address",
                    "name": "",
                    "type": "address"
                }
            ],
            "stateMutability": "view",
            "type": "function"
        },
        {
            "inputs": [
                {
                    "internalType": "uint16",
                    "name": "_lowerFeePercentage",
                    "type": "uint16"
                }
            ],
            "name": "decreasePlatformFeePercentage",
            "outputs": [],
            "stateMutability": "nonpayable",
            "type": "function"
        },
        {
            "inputs": [
                {
                    "internalType": "contract IERC1155",
                    "name": "_nftAddress",
                    "type": "address"
                },
                {
                    "internalType": "uint256",
                    "name": "_tokenId",
                    "type": "uint256"
                },
                {
                    "internalType": "uint256",
                    "name": "_listingId",
                    "type": "uint256"
                }
            ],
            "name": "delistToken",
            "outputs": [],
            "stateMutability": "nonpayable",
            "type": "function"
        },
        {
            "inputs": [
                {
                    "internalType": "contract IERC1155",
                    "name": "_nftAddress",
                    "type": "address"
                },
                {
                    "internalType": "uint256",
                    "name": "_tokenId",
                    "type": "uint256"
                },
                {
                    "internalType": "uint256",
                    "name": "_listingId",
                    "type": "uint256"
                },
                {
                    "internalType": "contract IERC20",
                    "name": "_paymentToken",
                    "type": "address"
                },
                {
                    "internalType": "uint256",
                    "name": "_price",
                    "type": "uint256"
                },
                {
                    "internalType": "int256",
                    "name": "_amount",
                    "type": "int256"
                },
                {
                    "internalType": "int256",
                    "name": "_expectedAmount",
                    "type": "int256"
                }
            ],
            "name": "editListing",
            "outputs": [],
            "stateMutability": "nonpayable",
            "type": "function"
        },
        {
            "inputs": [
                {
                    "internalType": "contract IERC1155",
                    "name": "_nftAddress",
                    "type": "address"
                },
                {
                    "internalType": "uint256",
                    "name": "_tokenId",
                    "type": "uint256"
                },
                {
                    "internalType": "uint256",
                    "name": "_listingId",
                    "type": "uint256"
                }
            ],
            "name": "getListing",
            "outputs": [
                {
                    "components": [
                        {
                            "internalType": "contract IERC20",
                            "name": "paymentToken",
                            "type": "address"
                        },
                        {
                            "internalType": "uint256",
                            "name": "price",
                            "type": "uint256"
                        },
                        {
                            "internalType": "address",
                            "name": "seller",
                            "type": "address"
                        },
                        {
                            "internalType": "uint256",
                            "name": "amount",
                            "type": "uint256"
                        }
                    ],
                    "internalType": "struct Marketplace.Listing",
                    "name": "",
                    "type": "tuple"
                }
            ],
            "stateMutability": "view",
            "type": "function"
        },
        {
            "inputs": [
                {
                    "internalType": "contract IERC1155",
                    "name": "_nftAddress",
                    "type": "address"
                },
                {
                    "internalType": "uint256",
                    "name": "_tokenId",
                    "type": "uint256"
                },
                {
                    "internalType": "contract IERC20",
                    "name": "_paymentToken",
                    "type": "address"
                },
                {
                    "internalType": "uint256",
                    "name": "_price",
                    "type": "uint256"
                },
                {
                    "internalType": "uint256",
                    "name": "_amount",
                    "type": "uint256"
                }
            ],
            "name": "listToken",
            "outputs": [],
            "stateMutability": "nonpayable",
            "type": "function"
        },
        {
            "inputs": [
                {
                    "internalType": "contract IERC1155",
                    "name": "",
                    "type": "address"
                },
                {
                    "internalType": "uint256",
                    "name": "",
                    "type": "uint256"
                }
            ],
            "name": "listingCount",
            "outputs": [
                {
                    "internalType": "uint256",
                    "name": "",
                    "type": "uint256"
                }
            ],
            "stateMutability": "view",
            "type": "function"
        },
        {
            "inputs": [
                {
                    "internalType": "contract IERC1155",
                    "name": "",
                    "type": "address"
                },
                {
                    "internalType": "uint256",
                    "name": "",
                    "type": "uint256"
                },
                {
                    "internalType": "uint256",
                    "name": "",
                    "type": "uint256"
                }
            ],
            "name": "listings",
            "outputs": [
                {
                    "internalType": "contract IERC20",
                    "name": "paymentToken",
                    "type": "address"
                },
                {
                    "internalType": "uint256",
                    "name": "price",
                    "type": "uint256"
                },
                {
                    "internalType": "address",
                    "name": "seller",
                    "type": "address"
                },
                {
                    "internalType": "uint256",
                    "name": "amount",
                    "type": "uint256"
                }
            ],
            "stateMutability": "view",
            "type": "function"
        },
        {
            "inputs": [],
            "name": "lock",
            "outputs": [
                {
                    "internalType": "uint256",
                    "name": "",
                    "type": "uint256"
                }
            ],
            "stateMutability": "view",
            "type": "function"
        },
        {
            "inputs": [],
            "name": "newPlatformFeePercentage",
            "outputs": [
                {
                    "internalType": "uint16",
                    "name": "",
                    "type": "uint16"
                }
            ],
            "stateMutability": "view",
            "type": "function"
        },
        {
            "inputs": [],
            "name": "owner",
            "outputs": [
                {
                    "internalType": "address",
                    "name": "",
                    "type": "address"
                }
            ],
            "stateMutability": "view",
            "type": "function"
        },
        {
            "inputs": [],
            "name": "pause",
            "outputs": [],
            "stateMutability": "nonpayable",
            "type": "function"
        },
        {
            "inputs": [],
            "name": "paused",
            "outputs": [
                {
                    "internalType": "bool",
                    "name": "",
                    "type": "bool"
                }
            ],
            "stateMutability": "view",
            "type": "function"
        },
        {
            "inputs": [],
            "name": "platformFeePercentage",
            "outputs": [
                {
                    "internalType": "uint16",
                    "name": "",
                    "type": "uint16"
                }
            ],
            "stateMutability": "view",
            "type": "function"
        },
        {
            "inputs": [],
            "name": "renounceOwnership",
            "outputs": [],
            "stateMutability": "nonpayable",
            "type": "function"
        },
        {
            "inputs": [
                {
                    "internalType": "uint16",
                    "name": "_higherFeePercentage",
                    "type": "uint16"
                }
            ],
            "name": "requestPlatformFeePercentageIncrease",
            "outputs": [],
            "stateMutability": "nonpayable",
            "type": "function"
        },
        {
            "inputs": [
                {
                    "internalType": "address",
                    "name": "_commissionAccount",
                    "type": "address"
                }
            ],
            "name": "setCommissionAccount",
            "outputs": [],
            "stateMutability": "nonpayable",
            "type": "function"
        },
        {
            "inputs": [
                {
                    "internalType": "address",
                    "name": "newOwner",
                    "type": "address"
                }
            ],
            "name": "transferOwnership",
            "outputs": [],
            "stateMutability": "nonpayable",
            "type": "function"
        },
        {
            "inputs": [],
            "name": "unpause",
            "outputs": [],
            "stateMutability": "nonpayable",
            "type": "function"
        }
    ],
    "bytecode": "0x60806040526000805461ffff60a81b1916607d60aa1b1781556002556003805461ffff191690556001600160ff1b036005553480156200003e57600080fd5b50604051620023e4380380620023e4833981016040819052620000619162000122565b6000805460ff191690558033806200009357604051631e4fbdf760e01b81526000600482015260240160405180910390fd5b6200009e81620000c9565b50600180546001600160a01b0319166001600160a01b03929092169190911781556004555062000154565b600080546001600160a01b03838116610100818102610100600160a81b0319851617855560405193049190911692909183917f8be0079c531659141344cd1fd0a4f28419497f9722a3daafe3b4186f6b6457e091a35050565b6000602082840312156200013557600080fd5b81516001600160a01b03811681146200014d57600080fd5b9392505050565b61228080620001646000396000f3fe6080604052600436106101355760003560e01c80638e9d0309116100ab578063ca5454921161006f578063ca5454921461040a578063cdd78cfc1461042a578063ed70994b1461044c578063f1929d5a1461046c578063f2fde38b14610483578063f83d08ba146104a357600080fd5b80638e9d030914610339578063900001a814610359578063a340cab814610379578063aa268f041461038c578063bf617180146103ac57600080fd5b80636bf9de80116100fd5780636bf9de80146101f4578063715018a6146102225780637d3b48ea146102375780638456cb59146102cd5780638da5cb5b146102e25780638de6c9dc1461031957600080fd5b80631747f4d91461013a57806329809cb7146101855780633e55177d1461019c5780633f4ba83a146101bc5780635c975abb146101d1575b600080fd5b34801561014657600080fd5b50610172610155366004611e30565b600760209081526000928352604080842090915290825290205481565b6040519081526020015b60405180910390f35b34801561019157600080fd5b5061019a6104b9565b005b3480156101a857600080fd5b5061019a6101b7366004611e5c565b6105f6565b3480156101c857600080fd5b5061019a610620565b3480156101dd57600080fd5b5060005460ff16604051901515815260200161017c565b34801561020057600080fd5b5060035461020f9061ffff1681565b60405161ffff909116815260200161017c565b34801561022e57600080fd5b5061019a610632565b34801561024357600080fd5b50610298610252366004611e79565b600660209081526000938452604080852082529284528284209052825290208054600182015460028301546003909301546001600160a01b039283169391929091169084565b60405161017c94939291906001600160a01b039485168152602081019390935292166040820152606081019190915260800190565b3480156102d957600080fd5b5061019a610644565b3480156102ee57600080fd5b5060005461010090046001600160a01b03165b6040516001600160a01b03909116815260200161017c565b34801561032557600080fd5b5061019a610334366004611eae565b610654565b34801561034557600080fd5b5061019a610354366004611f13565b610bbd565b34801561036557600080fd5b5061019a610374366004611f37565b610c93565b61019a610387366004611f89565b610f7e565b34801561039857600080fd5b5061019a6103a7366004611f13565b611612565b3480156103b857600080fd5b506103cc6103c7366004611e79565b6116ee565b6040805182516001600160a01b039081168252602080850151908301528383015116918101919091526060918201519181019190915260800161017c565b34801561041657600080fd5b5061019a610425366004611e79565b611773565b34801561043657600080fd5b5060005461020f90600160a81b900461ffff1681565b34801561045857600080fd5b50600154610301906001600160a01b031681565b34801561047857600080fd5b5061017262093a8081565b34801561048f57600080fd5b5061019a61049e366004611e5c565b611826565b3480156104af57600080fd5b5061017260025481565b6104c1611864565b60025460000361054f5760405162461bcd60e51b815260206004820152604860248201527f4e4654436f6d6d697373696f6e733a20706c6174666f726d206665652070657260448201527f63656e7461676520696e637265617365206d7573742062652066697273742072606482015267195c5d595cdd195960c21b608482015260a4015b60405180910390fd5b6002544210156105c75760405162461bcd60e51b815260206004820152603a60248201527f4e4654436f6d6d697373696f6e733a20706c6174666f726d206665652070657260448201527f63656e7461676520696e637265617365206973206c6f636b65640000000000006064820152608401610546565b6000600281905560038054825461ffff60a81b191661ffff8216600160a81b021790925561ffff199091169055565b6105fe611864565b600180546001600160a01b0319166001600160a01b0392909216919091179055565b610628611864565b610630611897565b565b61063a611864565b61063060006118e9565b61064c611864565b610630611942565b61065c61197f565b6106646119a3565b6001600160a01b0387811660009081526006602090815260408083208a845282528083208984529091529020600201541633146106f35760405162461bcd60e51b815260206004820152602760248201527f4d61726b6574706c6163653a2063616e206f6e6c792065646974206f776e206c604482015266697374696e677360c81b6064820152608401610546565b60405163e985e9c560e01b81523360048201523060248201526001600160a01b0388169063e985e9c590604401602060405180830381865afa15801561073d573d6000803e3d6000fd5b505050506040513d601f19601f820116820180604052508101906107619190611fe7565b61077d5760405162461bcd60e51b815260040161054690612009565b8160001914806107f95750604051627eeac760e11b8152336004820152602481018790526001600160a01b0388169062fdd58e90604401602060405180830381865afa1580156107d1573d6000803e3d6000fd5b505050506040513d601f19601f820116820180604052508101906107f5919061205a565b8213155b6108155760405162461bcd60e51b815260040161054690612073565b6000821380610825575081600019145b6108a75760405162461bcd60e51b815260206004820152604760248201527f4d61726b6574706c6163653a20616d6f756e74206d757374206265206772656160448201527f746572207468616e2030206f7220657175616c20746f202d3120666f72206e6f606482015266206368616e676560c81b608482015260a401610546565b6005548213156108c95760405162461bcd60e51b8152600401610546906120b9565b600083116108e95760405162461bcd60e51b815260040161054690612116565b8060001914610a165760008112156109855760405162461bcd60e51b815260206004820152605360248201527f4d61726b6574706c6163653a20657870656374656420616d6f756e74206d757360448201527f742062652067726561746572207468616e206f7220657175616c20746f20302c606482015272206f72202d3120666f72206e6f20636865636b60681b608482015260a401610546565b6001600160a01b038716600090815260066020908152604080832089845282528083208884529091529020600301548114610a165760405162461bcd60e51b815260206004820152602b60248201527f4d61726b6574706c6163653a20657870656374656420616d6f756e7420646f6560448201526a0e640dcdee840dac2e8c6d60ab1b6064820152608401610546565b8119610a4e576001600160a01b0387166000908152600660209081526040808320898452825280832088845290915290206003015491505b6040518060800160405280856001600160a01b03168152602001848152602001336001600160a01b031681526020018381525060066000896001600160a01b03166001600160a01b031681526020019081526020016000206000888152602001908152602001600020600087815260200190815260200160002060008201518160000160006101000a8154816001600160a01b0302191690836001600160a01b031602179055506020820151816001015560408201518160020160006101000a8154816001600160a01b0302191690836001600160a01b0316021790555060608201518160030155905050336001600160a01b031686886001600160a01b03167f3ef67979eecbdbc9ed46a84e1e88f1f3fa5b4a2a52013b0113c079f3cbebf06588868989604051610ba2949392919093845260208401929092526001600160a01b03166040830152606082015260800190565b60405180910390a4610bb46001600455565b50505050505050565b610bc5611864565b60005461ffff600160a81b909104811690821610610c715760405162461bcd60e51b815260206004820152605a60248201527f4e4654436f6d6d697373696f6e733a205f6c6f77657246656550657263656e7460448201527f616765206d757374206265206c6f776572207468616e2074686520637572726560648201527f6e7420706c6174666f726d206665652070657263656e74616765000000000000608482015260a401610546565b6000805461ffff909216600160a81b0261ffff60a81b19909216919091179055565b610c9b61197f565b610ca36119a3565b60405163e985e9c560e01b81523360048201523060248201526001600160a01b0386169063e985e9c590604401602060405180830381865afa158015610ced573d6000803e3d6000fd5b505050506040513d601f19601f82011682018060405250810190610d119190611fe7565b610d2d5760405162461bcd60e51b815260040161054690612009565b604051627eeac760e11b8152336004820152602481018590526001600160a01b0386169062fdd58e90604401602060405180830381865afa158015610d76573d6000803e3d6000fd5b505050506040513d601f19601f82011682018060405250810190610d9a919061205a565b811115610db95760405162461bcd60e51b815260040161054690612073565b60008111610e1c5760405162461bcd60e51b815260206004820152602a60248201527f4d61726b6574706c6163653a20616d6f756e74206d75737420626520677265616044820152690746572207468616e20360b41b6064820152608401610546565b600554811115610e3e5760405162461bcd60e51b8152600401610546906120b9565b60008211610e5e5760405162461bcd60e51b815260040161054690612116565b6001600160a01b038086166000818152600760209081526040808320898452808352818420805483516080810185528b891681528086018b815233828701908152606083018c8152998952600688528689208f8a528852868920848a52885295882091518254908b166001600160a01b031991821617835590516001830155945160028201805491909a169516949094179097559451600390920191909155888352905281549190610f0f83612175565b909155505060408051828152602081018490526001600160a01b038681168284015260608201869052915133928892908a16917f3ef67979eecbdbc9ed46a84e1e88f1f3fa5b4a2a52013b0113c079f3cbebf0659181900360800190a450610f776001600455565b5050505050565b610f8661197f565b610f8e6119a3565b60008311610ff25760405162461bcd60e51b815260206004820152602b60248201527f4d61726b6574706c6163653a205f616d6f756e74206d7573742062652067726560448201526a061746572207468616e20360ac1b6064820152608401610546565b6001600160a01b0386811660009081526006602090815260408083208984528252808320888452909152902060020154166110955760405162461bcd60e51b815260206004820152603860248201527f4d61726b6574706c6163653a2063616e6e6f7420696e7465726163742077697460448201527f682061206e6f6e2d6578697374656e74206c697374696e6700000000000000006064820152608401610546565b6001600160a01b0386811660009081526006602090815260408083208984528252808320888452909152902060020154339116036111235760405162461bcd60e51b815260206004820152602560248201527f4d61726b6574706c6163653a2063616e6e6f74206275792066726f6d20796f756044820152643939b2b63360d91b6064820152608401610546565b6001600160a01b038616600090815260066020908152604080832088845282528083208784529091529020600301548311156111af5760405162461bcd60e51b815260206004820152602560248201527f4d61726b6574706c6163653a206e6f7420656e6f75676820746f6b656e7320746044820152646f2062757960d81b6064820152608401610546565b6001600160a01b0386811660008181526006602090815260408083208a8452825280832089845290915290819020600201549051627eeac760e11b8152921660048301819052602483018890529162fdd58e90604401602060405180830381865afa158015611222573d6000803e3d6000fd5b505050506040513d601f19601f82011682018060405250810190611246919061205a565b8411156112ad5760405162461bcd60e51b815260206004820152602f60248201527f4d61726b6574706c6163653a2073656c6c657220646f6573206e6f742068617660448201526e6520656e6f75676820746f6b656e7360881b6064820152608401610546565b6001600160a01b0380881660009081526006602090815260408083208a845282528083208984529091529020548116908416811461133f5760405162461bcd60e51b815260206004820152602960248201527f4d61726b6574706c6163653a207061796d656e7420746f6b656e20646f6573206044820152680dcdee840dac2e8c6d60bb1b6064820152608401610546565b6001600160a01b03881660009081526006602090815260408083208a84528252808320898452909152902060010154838111156113be5760405162461bcd60e51b815260206004820152601b60248201527f4d61726b6574706c6163653a20707269636520746f6f206869676800000000006044820152606401610546565b6113c8868261218e565b604051636eb1769f60e11b81523360048201523060248201526001600160a01b0384169063dd62ed3e90604401602060405180830381865afa158015611412573d6000803e3d6000fd5b505050506040513d601f19601f82011682018060405250810190611436919061205a565b101561148e5760405162461bcd60e51b815260206004820152602160248201527f4d61726b6574706c6163653a206e6f7420656e6f75676820616c6c6f77616e636044820152606560f81b6064820152608401610546565b6001600160a01b03891660009081526006602090815260408083208b845282528083208a8452909152812060030180548892906114cc9084906121a5565b90915550506001600160a01b03891660009081526006602090815260408083208b845282528083208a84529091528120600301549003611511576115118989896119cd565b6040805133815260208101899052908101879052606081018290526001600160a01b03808516918a918c16907f7a9dafa9620d13885b27deac725acbb884d4f61383093c7c2862ea451faa02ec9060800160405180910390a46115808989858561157b8b8761218e565b611a71565b604051637921219560e11b81526001600160a01b038481166004830152336024830152604482018a90526064820188905260a06084830152600060a48301528a169063f242432a9060c401600060405180830381600087803b1580156115e557600080fd5b505af11580156115f9573d6000803e3d6000fd5b5050505050505061160a6001600455565b505050505050565b61161a611864565b60005461ffff600160a81b9091048116908216116116c65760405162461bcd60e51b815260206004820152605c60248201527f4e4654436f6d6d697373696f6e733a205f68696768657246656550657263656e60448201527f74616765206d75737420626520686967686572207468616e207468652063757260648201527f72656e7420706c6174666f726d206665652070657263656e7461676500000000608482015260a401610546565b6116d362093a80426121b8565b6002556003805461ffff191661ffff92909216919091179055565b60408051608080820183526000808352602080840182905283850182905260609384018290526001600160a01b03888116835260068252858320888452825285832087845282529185902085519384018652805483168452600181015491840191909152600281015490911693820193909352600390920154908201525b9392505050565b61177b6119a3565b6001600160a01b038381166000908152600660209081526040808320868452825280832085845290915290206002015416331461180c5760405162461bcd60e51b815260206004820152602960248201527f4d61726b6574706c6163653a2063616e206f6e6c792064656c697374206f776e604482015268206c697374696e677360b81b6064820152608401610546565b6118178383836119cd565b6118216001600455565b505050565b61182e611864565b6001600160a01b03811661185857604051631e4fbdf760e01b815260006004820152602401610546565b611861816118e9565b50565b6000546001600160a01b036101009091041633146106305760405163118cdaa760e01b8152336004820152602401610546565b61189f611bfc565b6000805460ff191690557f5db9ee0a495bf2e6ff9c91a7834c1ba4fdd244a5e8aa4e537bd38aeae4b073aa335b6040516001600160a01b03909116815260200160405180910390a1565b600080546001600160a01b03838116610100818102610100600160a81b0319851617855560405193049190911692909183917f8be0079c531659141344cd1fd0a4f28419497f9722a3daafe3b4186f6b6457e091a35050565b61194a61197f565b6000805460ff191660011790557f62e78cea01bee320cd4e420270b5ea74000d11b0c9f74754ebdbfc544b05a2586118cc3390565b60005460ff16156106305760405163d93c066560e01b815260040160405180910390fd5b6002600454036119c657604051633ee5aeb560e01b815260040160405180910390fd5b6002600455565b6001600160a01b03831660009081526006602090815260408083208584528252808320848452909152812080546001600160a01b0319908116825560018201839055600282018054909116905560030155336001600160a01b031682846001600160a01b03167ffa35030c3c7d834268ab6e51b6af06e24b8f502f8fde9c54ed6ba28f36f0e3cb84604051611a6491815260200190565b60405180910390a4505050565b6000805461271090611a8e90600160a81b900461ffff168461218e565b611a9891906121cb565b90506000611aa682846121a5565b6040516301ffc9a760e01b815263152a902d60e11b600482015290915060009081906001600160a01b038a16906301ffc9a790602401602060405180830381865afa158015611af9573d6000803e3d6000fd5b505050506040513d601f19601f82011682018060405250810190611b1d9190611fe7565b15611b975760405163152a902d60e11b815260048101899052602481018490526001600160a01b038a1690632a55205a906044016040805180830381865afa158015611b6d573d6000803e3d6000fd5b505050506040513d601f19601f82011682018060405250810190611b9191906121ed565b90925090505b828115611bbf57611ba882826121a5565b9050611bbf6001600160a01b038816338585611c1f565b600154611bdb906001600160a01b038981169133911688611c1f565b611bf06001600160a01b038816338a84611c1f565b50505050505050505050565b60005460ff1661063057604051638dfc202b60e01b815260040160405180910390fd5b604080516001600160a01b0385811660248301528416604482015260648082018490528251808303909101815260849091019091526020810180516001600160e01b03166323b872dd60e01b179052611c79908590611c7f565b50505050565b6000611c946001600160a01b03841683611ce2565b90508051600014158015611cb9575080806020019051810190611cb79190611fe7565b155b1561182157604051635274afe760e01b81526001600160a01b0384166004820152602401610546565b6060611cf083836000611cf9565b90505b92915050565b606081471015611d1e5760405163cd78605960e01b8152306004820152602401610546565b600080856001600160a01b03168486604051611d3a919061221b565b60006040518083038185875af1925050503d8060008114611d77576040519150601f19603f3d011682016040523d82523d6000602084013e611d7c565b606091505b5091509150611d8c868383611d96565b9695505050505050565b606082611dab57611da682611df2565b61176c565b8151158015611dc257506001600160a01b0384163b155b15611deb57604051639996b31560e01b81526001600160a01b0385166004820152602401610546565b508061176c565b805115611e025780518082602001fd5b604051630a12f52160e11b815260040160405180910390fd5b6001600160a01b038116811461186157600080fd5b60008060408385031215611e4357600080fd5b8235611e4e81611e1b565b946020939093013593505050565b600060208284031215611e6e57600080fd5b813561176c81611e1b565b600080600060608486031215611e8e57600080fd5b8335611e9981611e1b565b95602085013595506040909401359392505050565b600080600080600080600060e0888a031215611ec957600080fd5b8735611ed481611e1b565b965060208801359550604088013594506060880135611ef281611e1b565b9699959850939660808101359560a0820135955060c0909101359350915050565b600060208284031215611f2557600080fd5b813561ffff8116811461176c57600080fd5b600080600080600060a08688031215611f4f57600080fd5b8535611f5a81611e1b565b9450602086013593506040860135611f7181611e1b565b94979396509394606081013594506080013592915050565b60008060008060008060c08789031215611fa257600080fd5b8635611fad81611e1b565b95506020870135945060408701359350606087013592506080870135611fd281611e1b565b8092505060a087013590509295509295509295565b600060208284031215611ff957600080fd5b8151801515811461176c57600080fd5b60208082526031908201527f4d61726b6574706c6163653a204d61726b6574706c61636520636f6e747261636040820152701d081a5cc81b9bdd08185c1c1c9bdd9959607a1b606082015260800190565b60006020828403121561206c57600080fd5b5051919050565b60208082526026908201527f4d61726b6574706c6163653a206e6f7420656e6f75676820746f6b656e7320746040820152651bc81b1a5cdd60d21b606082015260800190565b6020808252603c908201527f4d61726b6574706c6163653a20616d6f756e74206d757374206265206c65737360408201527f207468616e206f7220657175616c20746f204d41585f414d4f554e5400000000606082015260800190565b60208082526029908201527f4d61726b6574706c6163653a207072696365206d75737420626520677265617460408201526806572207468616e20360bc1b606082015260800190565b634e487b7160e01b600052601160045260246000fd5b6000600182016121875761218761215f565b5060010190565b8082028115828204841417611cf357611cf361215f565b81810381811115611cf357611cf361215f565b80820180821115611cf357611cf361215f565b6000826121e857634e487b7160e01b600052601260045260246000fd5b500490565b6000806040838503121561220057600080fd5b825161220b81611e1b565b6020939093015192949293505050565b6000825160005b8181101561223c5760208186018101518583015201612222565b50600092019182525091905056fea2646970667358221220bcaf77a31e2893f8015ff8a127949d1d8d4e6a6a6c1d3d7e1e0f2ff15c24b8c564736f6c63430008180033",
    "linkReferences": {},
    "deployedLinkReferences": {}
}