{
    "_format": "hh-sol-artifact-1",
    "contractName": "ZangNFT",
    "sourceName": "contracts/ZangNFT.sol",
    "abi": [
        {
            "inputs": [
                {
                    "internalType": "string",
                    "name": "_name",
                    "type": "string"
                },
                {
                    "internalType": "string",
                    "name": "_symbol",
                    "type": "string"
                },
                {
                    "internalType": "string",
                    "name": "_description",
                    "type": "string"
                },
                {
                    "internalType": "string",
                    "name": "_imageURI",
                    "type": "string"
                },
                {
                    "internalType": "string",
                    "name": "_externalLink",
                    "type": "string"
                }
            ],
            "stateMutability": "nonpayable",
            "type": "constructor"
        },
        {
            "inputs": [
                {
                    "internalType": "address",
                    "name": "sender",
                    "type": "address"
                },
                {
                    "internalType": "uint256",
                    "name": "balance",
                    "type": "uint256"
                },
                {
                    "internalType": "uint256",
                    "name": "needed",
                    "type": "uint256"
                },
                {
                    "internalType": "uint256",
                    "name": "tokenId",
                    "type": "uint256"
                }
            ],
            "name": "ERC1155InsufficientBalance",
            "type": "error"
        },
        {
            "inputs": [
                {
                    "internalType": "address",
                    "name": "approver",
                    "type": "address"
                }
            ],
            "name": "ERC1155InvalidApprover",
            "type": "error"
        },
        {
            "inputs": [
                {
                    "internalType": "uint256",
                    "name": "idsLength",
                    "type": "uint256"
                },
                {
                    "internalType": "uint256",
                    "name": "valuesLength",
                    "type": "uint256"
                }
            ],
            "name": "ERC1155InvalidArrayLength",
            "type": "error"
        },
        {
            "inputs": [
                {
                    "internalType": "address",
                    "name": "operator",
                    "type": "address"
                }
            ],
            "name": "ERC1155InvalidOperator",
            "type": "error"
        },
        {
            "inputs": [
                {
                    "internalType": "address",
                    "name": "receiver",
                    "type": "address"
                }
            ],
            "name": "ERC1155InvalidReceiver",
            "type": "error"
        },
        {
            "inputs": [
                {
                    "internalType": "address",
                    "name": "sender",
                    "type": "address"
                }
            ],
            "name": "ERC1155InvalidSender",
            "type": "error"
        },
        {
            "inputs": [
                {
                    "internalType": "address",
                    "name": "operator",
                    "type": "address"
                },
                {
                    "internalType": "address",
                    "name": "owner",
                    "type": "address"
                }
            ],
            "name": "ERC1155MissingApprovalForAll",
            "type": "error"
        },
        {
            "inputs": [
                {
                    "internalType": "uint256",
                    "name": "numerator",
                    "type": "uint256"
                },
                {
                    "internalType": "uint256",
                    "name": "denominator",
                    "type": "uint256"
                }
            ],
            "name": "ERC2981InvalidDefaultRoyalty",
            "type": "error"
        },
        {
            "inputs": [
                {
                    "internalType": "address",
                    "name": "receiver",
                    "type": "address"
                }
            ],
            "name": "ERC2981InvalidDefaultRoyaltyReceiver",
            "type": "error"
        },
        {
            "inputs": [
                {
                    "internalType": "uint256",
                    "name": "tokenId",
                    "type": "uint256"
                },
                {
                    "internalType": "uint256",
                    "name": "numerator",
                    "type": "uint256"
                },
                {
                    "internalType": "uint256",
                    "name": "denominator",
                    "type": "uint256"
                }
            ],
            "name": "ERC2981InvalidTokenRoyalty",
            "type": "error"
        },
        {
            "inputs": [
                {
                    "internalType": "uint256",
                    "name": "tokenId",
                    "type": "uint256"
                },
                {
                    "internalType": "address",
                    "name": "receiver",
                    "type": "address"
                }
            ],
            "name": "ERC2981InvalidTokenRoyaltyReceiver",
            "type": "error"
        },
        {
            "anonymous": false,
            "inputs": [
                {
                    "indexed": true,
                    "internalType": "address",
                    "name": "account",
                    "type": "address"
                },
                {
                    "indexed": true,
                    "internalType": "address",
                    "name": "operator",
                    "type": "address"
                },
                {
                    "indexed": false,
                    "internalType": "bool",
                    "name": "approved",
                    "type": "bool"
                }
            ],
            "name": "ApprovalForAll",
            "type": "event"
        },
        {
            "anonymous": false,
            "inputs": [
                {
                    "indexed": true,
                    "internalType": "address",
                    "name": "operator",
                    "type": "address"
                },
                {
                    "indexed": true,
                    "internalType": "address",
                    "name": "from",
                    "type": "address"
                },
                {
                    "indexed": true,
                    "internalType": "address",
                    "name": "to",
                    "type": "address"
                },
                {
                    "indexed": false,
                    "internalType": "uint256[]",
                    "name": "ids",
                    "type": "uint256[]"
                },
                {
                    "indexed": false,
                    "internalType": "uint256[]",
                    "name": "values",
                    "type": "uint256[]"
                }
            ],
            "name": "TransferBatch",
            "type": "event"
        },
        {
            "anonymous": false,
            "inputs": [
                {
                    "indexed": true,
                    "internalType": "address",
                    "name": "operator",
                    "type": "address"
                },
                {
                    "indexed": true,
                    "internalType": "address",
                    "name": "from",
                    "type": "address"
                },
                {
                    "indexed": true,
                    "internalType": "address",
                    "name": "to",
                    "type": "address"
                },
                {
                    "indexed": false,
                    "internalType": "uint256",
                    "name": "id",
                    "type": "uint256"
                },
                {
                    "indexed": false,
                    "internalType": "uint256",
                    "name": "value",
                    "type": "uint256"
                }
            ],
            "name": "TransferSingle",
            "type": "event"
        },
        {
            "anonymous": false,
            "inputs": [
                {
                    "indexed": false,
                    "internalType": "string",
                    "name": "value",
                    "type": "string"
                },
                {
                    "indexed": true,
                    "internalType": "uint256",
                    "name": "id",
                    "type": "uint256"
                }
            ],
            "name": "URI",
            "type": "event"
        },
        {
            "inputs": [
                {
                    "internalType": "uint256",
                    "name": "_tokenId",
                    "type": "uint256"
                }
            ],
            "name": "authorOf",
            "outputs": [
                {
                    "internalType": "address",
                    "name": "",
                    "type": "address"
                }
            ],
            "stateMutability": "view",
            "type": "function"
        },
        {
            "inputs": [
                {
                    "internalType": "address",
                    "name": "account",
                    "type": "address"
                },
                {
                    "internalType": "uint256",
                    "name": "id",
                    "type": "uint256"
                }
            ],
            "name": "balanceOf",
            "outputs": [
                {
                    "internalType": "uint256",
                    "name": "",
                    "type": "uint256"
                }
            ],
            "stateMutability": "view",
            "type": "function"
        },
        {
            "inputs": [
                {
                    "internalType": "address[]",
                    "name": "accounts",
                    "type": "address[]"
                },
                {
                    "internalType": "uint256[]",
                    "name": "ids",
                    "type": "uint256[]"
                }
            ],
            "name": "balanceOfBatch",
            "outputs": [
                {
                    "internalType": "uint256[]",
                    "name": "",
                    "type": "uint256[]"
                }
            ],
            "stateMutability": "view",
            "type": "function"
        },
        {
            "inputs": [
                {
                    "internalType": "address",
                    "name": "_from",
                    "type": "address"
                },
                {
                    "internalType": "uint256",
                    "name": "_tokenId",
                    "type": "uint256"
                },
                {
                    "internalType": "uint256",
                    "name": "_amount",
                    "type": "uint256"
                }
            ],
            "name": "burn",
            "outputs": [],
            "stateMutability": "nonpayable",
            "type": "function"
        },
        {
            "inputs": [],
            "name": "contractURI",
            "outputs": [
                {
                    "internalType": "string",
                    "name": "",
                    "type": "string"
                }
            ],
            "stateMutability": "view",
            "type": "function"
        },
        {
            "inputs": [],
            "name": "description",
            "outputs": [
                {
                    "internalType": "string",
                    "name": "",
                    "type": "string"
                }
            ],
            "stateMutability": "view",
            "type": "function"
        },
        {
            "inputs": [
                {
                    "internalType": "uint256",
                    "name": "tokenId",
                    "type": "uint256"
                }
            ],
            "name": "descriptionOf",
            "outputs": [
                {
                    "internalType": "string",
                    "name": "",
                    "type": "string"
                }
            ],
            "stateMutability": "view",
            "type": "function"
        },
        {
            "inputs": [
                {
                    "internalType": "uint256",
                    "name": "id",
                    "type": "uint256"
                }
            ],
            "name": "exists",
            "outputs": [
                {
                    "internalType": "bool",
                    "name": "",
                    "type": "bool"
                }
            ],
            "stateMutability": "view",
            "type": "function"
        },
        {
            "inputs": [],
            "name": "externalLink",
            "outputs": [
                {
                    "internalType": "string",
                    "name": "",
                    "type": "string"
                }
            ],
            "stateMutability": "view",
            "type": "function"
        },
        {
            "inputs": [],
            "name": "imageURI",
            "outputs": [
                {
                    "internalType": "string",
                    "name": "",
                    "type": "string"
                }
            ],
            "stateMutability": "view",
            "type": "function"
        },
        {
            "inputs": [
                {
                    "internalType": "address",
                    "name": "account",
                    "type": "address"
                },
                {
                    "internalType": "address",
                    "name": "operator",
                    "type": "address"
                }
            ],
            "name": "isApprovedForAll",
            "outputs": [
                {
                    "internalType": "bool",
                    "name": "",
                    "type": "bool"
                }
            ],
            "stateMutability": "view",
            "type": "function"
        },
        {
            "inputs": [],
            "name": "lastTokenId",
            "outputs": [
                {
                    "internalType": "uint256",
                    "name": "",
                    "type": "uint256"
                }
            ],
            "stateMutability": "view",
            "type": "function"
        },
        {
            "inputs": [
                {
                    "internalType": "string",
                    "name": "textURI_",
                    "type": "string"
                },
                {
                    "internalType": "string",
                    "name": "name_",
                    "type": "string"
                },
                {
                    "internalType": "string",
                    "name": "description_",
                    "type": "string"
                },
                {
                    "internalType": "uint256",
                    "name": "amount_",
                    "type": "uint256"
                },
                {
                    "internalType": "uint96",
                    "name": "royaltyNumerator_",
                    "type": "uint96"
                },
                {
                    "internalType": "address",
                    "name": "royaltyRecipient_",
                    "type": "address"
                },
                {
                    "internalType": "bytes",
                    "name": "data_",
                    "type": "bytes"
                }
            ],
            "name": "mint",
            "outputs": [
                {
                    "internalType": "uint256",
                    "name": "",
                    "type": "uint256"
                }
            ],
            "stateMutability": "nonpayable",
            "type": "function"
        },
        {
            "inputs": [],
            "name": "name",
            "outputs": [
                {
                    "internalType": "string",
                    "name": "",
                    "type": "string"
                }
            ],
            "stateMutability": "view",
            "type": "function"
        },
        {
            "inputs": [
                {
                    "internalType": "uint256",
                    "name": "tokenId",
                    "type": "uint256"
                }
            ],
            "name": "nameOf",
            "outputs": [
                {
                    "internalType": "string",
                    "name": "",
                    "type": "string"
                }
            ],
            "stateMutability": "view",
            "type": "function"
        },
        {
            "inputs": [
                {
                    "internalType": "uint256",
                    "name": "tokenId",
                    "type": "uint256"
                },
                {
                    "internalType": "uint256",
                    "name": "salePrice",
                    "type": "uint256"
                }
            ],
            "name": "royaltyInfo",
            "outputs": [
                {
                    "internalType": "address",
                    "name": "",
                    "type": "address"
                },
                {
                    "internalType": "uint256",
                    "name": "",
                    "type": "uint256"
                }
            ],
            "stateMutability": "view",
            "type": "function"
        },
        {
            "inputs": [
                {
                    "internalType": "address",
                    "name": "from",
                    "type": "address"
                },
                {
                    "internalType": "address",
                    "name": "to",
                    "type": "address"
                },
                {
                    "internalType": "uint256[]",
                    "name": "ids",
                    "type": "uint256[]"
                },
                {
                    "internalType": "uint256[]",
                    "name": "values",
                    "type": "uint256[]"
                },
                {
                    "internalType": "bytes",
                    "name": "data",
                    "type": "bytes"
                }
            ],
            "name": "safeBatchTransferFrom",
            "outputs": [],
            "stateMutability": "nonpayable",
            "type": "function"
        },
        {
            "inputs": [
                {
                    "internalType": "address",
                    "name": "from",
                    "type": "address"
                },
                {
                    "internalType": "address",
                    "name": "to",
                    "type": "address"
                },
                {
                    "internalType": "uint256",
                    "name": "id",
                    "type": "uint256"
                },
                {
                    "internalType": "uint256",
                    "name": "value",
                    "type": "uint256"
                },
                {
                    "internalType": "bytes",
                    "name": "data",
                    "type": "bytes"
                }
            ],
            "name": "safeTransferFrom",
            "outputs": [],
            "stateMutability": "nonpayable",
            "type": "function"
        },
        {
            "inputs": [
                {
                    "internalType": "address",
                    "name": "operator",
                    "type": "address"
                },
                {
                    "internalType": "bool",
                    "name": "approved",
                    "type": "bool"
                }
            ],
            "name": "setApprovalForAll",
            "outputs": [],
            "stateMutability": "nonpayable",
            "type": "function"
        },
        {
            "inputs": [
                {
                    "internalType": "bytes4",
                    "name": "interfaceId",
                    "type": "bytes4"
                }
            ],
            "name": "supportsInterface",
            "outputs": [
                {
                    "internalType": "bool",
                    "name": "",
                    "type": "bool"
                }
            ],
            "stateMutability": "view",
            "type": "function"
        },
        {
            "inputs": [],
            "name": "symbol",
            "outputs": [
                {
                    "internalType": "string",
                    "name": "",
                    "type": "string"
                }
            ],
            "stateMutability": "view",
            "type": "function"
        },
        {
            "inputs": [
                {
                    "internalType": "uint256",
                    "name": "tokenId",
                    "type": "uint256"
                }
            ],
            "name": "textURI",
            "outputs": [
                {
                    "internalType": "string",
                    "name": "",
                    "type": "string"
                }
            ],
            "stateMutability": "view",
            "type": "function"
        },
        {
            "inputs": [],
            "name": "totalSupply",
            "outputs": [
                {
                    "internalType": "uint256",
                    "name": "",
                    "type": "uint256"
                }
            ],
            "stateMutability": "view",
            "type": "function"
        },
        {
            "inputs": [
                {
                    "internalType": "uint256",
                    "name": "id",
                    "type": "uint256"
                }
            ],
            "name": "totalSupply",
            "outputs": [
                {
                    "internalType": "uint256",
                    "name": "",
                    "type": "uint256"
                }
            ],
            "stateMutability": "view",
            "type": "function"
        },
        {
            "inputs": [
                {
                    "internalType": "uint256",
                    "name": "tokenId",
                    "type": "uint256"
                }
            ],
            "name": "uri",
            "outputs": [
                {
                    "internalType": "string",
                    "name": "",
                    "type": "string"
                }
            ],
            "stateMutability": "view",
            "type": "function"
        }
    ],
    "bytecode": "0x60806040523480156200001157600080fd5b5060405162002ceb38038062002ceb83398101604081905262000034916200017f565b6040805160208101909152600081526200004e81620000a5565b50600c6200005d8682620002f1565b50600d6200006c8582620002f1565b50600e6200007b8482620002f1565b50600f6200008a8382620002f1565b506010620000998282620002f1565b505050505050620003bd565b6002620000b38282620002f1565b5050565b634e487b7160e01b600052604160045260246000fd5b600082601f830112620000df57600080fd5b81516001600160401b0380821115620000fc57620000fc620000b7565b604051601f8301601f19908116603f01168101908282118183101715620001275762000127620000b7565b81604052838152602092508660208588010111156200014557600080fd5b600091505b838210156200016957858201830151818301840152908201906200014a565b6000602085830101528094505050505092915050565b600080600080600060a086880312156200019857600080fd5b85516001600160401b0380821115620001b057600080fd5b620001be89838a01620000cd565b96506020880151915080821115620001d557600080fd5b620001e389838a01620000cd565b95506040880151915080821115620001fa57600080fd5b6200020889838a01620000cd565b945060608801519150808211156200021f57600080fd5b6200022d89838a01620000cd565b935060808801519150808211156200024457600080fd5b506200025388828901620000cd565b9150509295509295909350565b600181811c908216806200027557607f821691505b6020821081036200029657634e487b7160e01b600052602260045260246000fd5b50919050565b601f821115620002ec576000816000526020600020601f850160051c81016020861015620002c75750805b601f850160051c820191505b81811015620002e857828155600101620002d3565b5050505b505050565b81516001600160401b038111156200030d576200030d620000b7565b62000325816200031e845462000260565b846200029c565b602080601f8311600181146200035d5760008415620003445750858301515b600019600386901b1c1916600185901b178555620002e8565b600085815260208120601f198616915b828110156200038e578886015182559484019460019091019084016200036d565b5085821015620003ad5787850151600019600388901b60f8161c191681555b5050505050600190811b01905550565b61291e80620003cd6000396000f3fe608060405234801561001057600080fd5b50600436106101725760003560e01c8063571733ab116100de578063bd85b03911610097578063e985e9c511610071578063e985e9c51461034b578063f242432a1461035e578063f5298aca14610371578063f84ddf0b1461038457600080fd5b8063bd85b03914610310578063d93e6e2314610330578063e8a3d4851461034357600080fd5b8063571733ab146102a75780635b9db898146102d25780637284e416146102da57806395d89b41146102e25780639d690ec7146102ea578063a22cb465146102fd57600080fd5b806318160ddd1161013057806318160ddd146102035780632a55205a1461020b5780632eb2c2d61461023d5780633e0fb267146102525780634e1273f4146102655780634f558e791461028557600080fd5b8062fdd58e1461017757806301ffc9a71461019d578063051a2664146101c057806306fdde03146101e05780630e89341c146101e8578063135d088d146101fb575b600080fd5b61018a610185366004611da5565b61038c565b6040519081526020015b60405180910390f35b6101b06101ab366004611de5565b6103b4565b6040519015158152602001610194565b6101d36101ce366004611e02565b6103dd565b6040516101949190611e6b565b6101d36104f0565b6101d36101f6366004611e02565b61057e565b6101d3610715565b60045461018a565b61021e610219366004611e7e565b610722565b604080516001600160a01b039093168352602083019190915201610194565b61025061024b366004611fea565b6107ce565b005b6101d3610260366004611e02565b610835565b610278610273366004612094565b6108c5565b6040516101949190612190565b6101b0610293366004611e02565b600090815260036020526040902054151590565b6102ba6102b5366004611e02565b610992565b6040516001600160a01b039091168152602001610194565b6101d3610a22565b6101d3610a2f565b6101d3610a3c565b61018a6102f83660046121ba565b610a49565b61025061030b366004612292565b610b2f565b61018a61031e366004611e02565b60009081526003602052604090205490565b6101d361033e366004611e02565b610b3e565b6101d3610bca565b6101b06103593660046122ce565b610c34565b61025061036c366004612301565b610c62565b61025061037f366004612366565b610cc1565b60075461018a565b6000818152602081815260408083206001600160a01b03861684529091529020545b92915050565b60006103bf82610dd1565b806103ce57506103ce82610e21565b806103ae57506103ae82610e21565b6000818152600360205260409020546060906104525760405162461bcd60e51b815260206004820152602960248201527f5a616e674e46543a206e616d6520717565727920666f72206e6f6e657869737460448201526832b73a103a37b5b2b760b91b60648201526084015b60405180910390fd5b6000828152600960205260409020805461046b90612399565b80601f016020809104026020016040519081016040528092919081815260200182805461049790612399565b80156104e45780601f106104b9576101008083540402835291602001916104e4565b820191906000526020600020905b8154815290600101906020018083116104c757829003601f168201915b50505050509050919050565b600c80546104fd90612399565b80601f016020809104026020016040519081016040528092919081815260200182805461052990612399565b80156105765780601f1061054b57610100808354040283529160200191610576565b820191906000526020600020905b81548152906001019060200180831161055957829003601f168201915b505050505081565b6000818152600360205260409020546060906105ed5760405162461bcd60e51b815260206004820152602860248201527f5a616e674e46543a2075726920717565727920666f72206e6f6e657869737465604482015267373a103a37b5b2b760c11b6064820152608401610449565b600082815260096020526040812080546106e89161069b9161060e90612399565b80601f016020809104026020016040519081016040528092919081815260200182805461063a90612399565b80156106875780601f1061065c57610100808354040283529160200191610687565b820191906000526020600020905b81548152906001019060200180831161066a57829003601f168201915b5050505050601160f91b601760fa1b610e46565b6000858152600a6020526040902080546106b9919061060e90612399565b6106c286610b3e565b6040516020016106d4939291906123d3565b604051602081830303815290604052610e5b565b90506000816040516020016106fd91906124a2565b60408051601f19818403018152919052949350505050565b600f80546104fd90612399565b60008281526006602090815260408083208151808301909252546001600160a01b038116808352600160a01b9091046001600160601b03169282019290925282916107975750604080518082019091526005546001600160a01b0381168252600160a01b90046001600160601b031660208201525b6020810151600090612710906107b6906001600160601b0316876124fd565b6107c09190612514565b915196919550909350505050565b336001600160a01b03861681148015906107ef57506107ed8682610c34565b155b156108205760405163711bec9160e11b81526001600160a01b03808316600483015287166024820152604401610449565b61082d8686868686610fc0565b505050505050565b6000818152600360205260409020546060906108ac5760405162461bcd60e51b815260206004820152603060248201527f5a616e674e46543a206465736372697074696f6e20717565727920666f72206e60448201526f37b732bc34b9ba32b73a103a37b5b2b760811b6064820152608401610449565b6000828152600a60205260409020805461046b90612399565b606081518351146108f65781518351604051635b05999160e01b815260048101929092526024820152604401610449565b6000835167ffffffffffffffff81111561091257610912611ea0565b60405190808252806020026020018201604052801561093b578160200160208202803683370190505b50905060005b845181101561098a576020808202860101516109659060208084028701015161038c565b82828151811061097757610977612536565b6020908102919091010152600101610941565b509392505050565b6000818152600b60205260408120546001600160a01b03166109c283600090815260036020526040902054151590565b6103ae5760405162461bcd60e51b815260206004820152602b60248201527f5a616e674e46543a20617574686f7220717565727920666f72206e6f6e65786960448201526a39ba32b73a103a37b5b2b760a91b6064820152608401610449565b601080546104fd90612399565b600e80546104fd90612399565b600d80546104fd90612399565b6000808511610a9a5760405162461bcd60e51b815260206004820152601e60248201527f5a616e674e46543a20616d6f756e742063616e6e6f74206265207a65726f00006044820152606401610449565b60078054906000610aaa8361254c565b9091555050600754610abc818a611027565b6000818152600960205260409020610ad489826125ad565b506000818152600a60205260409020610aed88826125ad565b506000818152600b6020526040902080546001600160a01b03191633179055610b1781858761103f565b610b2333828886611101565b98975050505050505050565b610b3a33838361115e565b5050565b600081815260036020526040902054606090610bb15760405162461bcd60e51b815260206004820152602c60248201527f5a616e674e46543a207465787455524920717565727920666f72206e6f6e657860448201526b34b9ba32b73a103a37b5b2b760a11b6064820152608401610449565b6000828152600860205260409020805461046b90612399565b60606000610c08610be1600c805461060e90612399565b610bf1600e805461060e90612399565b600f60106040516020016106d494939291906126e0565b9050600081604051602001610c1d91906124a2565b60408051601f198184030181529190529392505050565b6001600160a01b03918216600090815260016020908152604080832093909416825291909152205460ff1690565b336001600160a01b0386168114801590610c835750610c818682610c34565b155b15610cb45760405163711bec9160e11b81526001600160a01b03808316600483015287166024820152604401610449565b61082d86868686866111f4565b6001600160a01b038316331480610cdd5750610cdd8333610c34565b610d3b5760405162461bcd60e51b815260206004820152602960248201527f5a616e674e46543a2063616c6c6572206973206e6f74206f776e6572206e6f7260448201526808185c1c1c9bdd995960ba1b6064820152608401610449565b610d46838383611282565b600082815260036020526040902054600003610dcc576000828152600860205260408120610d7391611d38565b6000828152600960205260408120610d8a91611d38565b6000828152600a60205260408120610da191611d38565b506000908152600b6020908152604080832080546001600160a01b0319169055600690915281205550565b505050565b60006001600160e01b03198216636cdb3d1360e11b1480610e0257506001600160e01b031982166303a24d0760e21b145b806103ae57506301ffc9a760e01b6001600160e01b03198316146103ae565b60006001600160e01b0319821663152a902d60e11b14806103ae57506103ae82610dd1565b6060610e538484846112ea565b949350505050565b60608151600003610e7a57505060408051602081019091526000815290565b60006040518060600160405280604081526020016128a96040913990506000600384516002610ea991906127be565b610eb39190612514565b610ebe9060046124fd565b90506000610ecd8260206127be565b67ffffffffffffffff811115610ee557610ee5611ea0565b6040519080825280601f01601f191660200182016040528015610f0f576020820181803683370190505b509050818152600183018586518101602084015b81831015610f7b576003830192508251603f8160121c168501518253600182019150603f81600c1c168501518253600182019150603f8160061c168501518253600182019150603f8116850151825350600101610f23565b600389510660018114610f955760028114610fa657610fb2565b613d3d60f01b600119830152610fb2565b603d60f81b6000198301525b509398975050505050505050565b6001600160a01b038416610fea57604051632bfa23e760e11b815260006004820152602401610449565b6001600160a01b03851661101357604051626a0d4560e21b815260006004820152602401610449565b6110208585858585611605565b5050505050565b6000828152600860205260409020610dcc82826125ad565b6127106001600160601b0382168110156110855760405163dfd1fc1b60e01b8152600481018590526001600160601b038316602482015260448101829052606401610449565b6001600160a01b0383166110b657604051634b4f842960e11b81526004810185905260006024820152604401610449565b506040805180820182526001600160a01b0393841681526001600160601b0392831660208083019182526000968752600690529190942093519051909116600160a01b029116179055565b6001600160a01b03841661112b57604051632bfa23e760e11b815260006004820152602401610449565b6040805160018082526020820186905281830190815260608201859052608082019092529061082d600087848487611605565b6001600160a01b0382166111875760405162ced3e160e81b815260006004820152602401610449565b6001600160a01b03838116600081815260016020908152604080832094871680845294825291829020805460ff191686151590811790915591519182527f17307eab39ab6107e8899845ad3d59bd9653f200f220920489ca2b5937696c31910160405180910390a3505050565b6001600160a01b03841661121e57604051632bfa23e760e11b815260006004820152602401610449565b6001600160a01b03851661124757604051626a0d4560e21b815260006004820152602401610449565b604080516001808252602082018690528183019081526060820185905260808201909252906112798787848487611605565b50505050505050565b6001600160a01b0383166112ab57604051626a0d4560e21b815260006004820152602401610449565b604080516001808252602082018590528183019081526060820184905260a0820190925260006080820181815291929161102091879185908590611605565b60606112f583611658565b60ff166001146113515760405162461bcd60e51b815260206004820152602160248201527f537472696e675574696c733a20746172676574206d75737420626520415343496044820152604960f81b6064820152608401610449565b61135a82611658565b60ff166001146113b65760405162461bcd60e51b815260206004820152602160248201527f537472696e675574696c733a20696e73657274206d75737420626520415343496044820152604960f81b6064820152608401610449565b60005b845181101561145e578451816113ed87828481106113d9576113d9612536565b01602001516001600160f81b031916611658565b60ff166113fa91906127be565b11156114565760405162461bcd60e51b815260206004820152602560248201527f537472696e675574696c733a206e6f7420612076616c6964205554462d3820736044820152647472696e6760d81b6064820152608401610449565b6001016113b9565b5060008451600261146f91906124fd565b67ffffffffffffffff81111561148757611487611ea0565b6040519080825280601f01601f1916602001820160405280156114b1576020820181803683370190505b5090506000805b86518210156115f05760008783815181106114d5576114d5612536565b01602001516001600160f81b031916905060006114f182611658565b90508060ff16600114801561151257506001600160f81b0319828116908916145b1561154f578685848151811061152a5761152a612536565b60200101906001600160f81b031916908160001a9053508261154b8161254c565b9350505b60005b8160ff168160ff1610156115ca578961156e60ff8316876127be565b8151811061157e5761157e612536565b01602001516001600160f81b0319168661159b60ff8416876127be565b815181106115ab576115ab612536565b60200101906001600160f81b031916908160001a905350600101611552565b506115d860ff8216846127be565b92506115e760ff8216856127be565b935050506114b8565b6115fa83826116fd565b979650505050505050565b611611858585856117b8565b6001600160a01b03841615611020578251339060010361164a57602084810151908401516116438389898585896118ff565b505061082d565b61082d818787878787611a23565b6000600160ff1b6001600160f81b03198316101561167857506001919050565b600760fd1b6001600160f81b03198316101561169657506002919050565b600f60fc1b6001600160f81b0319831610156116b457506003919050565b601f60fb1b6001600160f81b0319831610156116d257506004919050565b603f60fa1b6001600160f81b0319831610156116f057506005919050565b506006919050565b919050565b6060600061170c838551611b0c565b905060008167ffffffffffffffff81111561172957611729611ea0565b6040519080825280601f01601f191660200182016040528015611753576020820181803683370190505b50905060005b828110156117af5785818151811061177357611773612536565b602001015160f81c60f81b82828151811061179057611790612536565b60200101906001600160f81b031916908160001a905350600101611759565b50949350505050565b6117c484848484611b24565b6001600160a01b03841661186e576000805b83518110156118545760008382815181106117f3576117f3612536565b60200260200101519050806003600087858151811061181457611814612536565b60200260200101518152602001908152602001600020600082825461183991906127be565b90915550611849905081846127be565b9250506001016117d6565b50806004600082825461186791906127be565b9091555050505b6001600160a01b0383166118f9576000805b83518110156118ed57600083828151811061189d5761189d612536565b6020026020010151905080600360008785815181106118be576118be612536565b602090810291909101810151825281019190915260400160002080549190910390559190910190600101611880565b50600480549190910390555b50505050565b6001600160a01b0384163b1561082d5760405163f23a6e6160e01b81526001600160a01b0385169063f23a6e619061194390899089908890889088906004016127d1565b6020604051808303816000875af192505050801561197e575060408051601f3d908101601f1916820190925261197b9181019061280b565b60015b6119e7573d8080156119ac576040519150601f19603f3d011682016040523d82523d6000602084013e6119b1565b606091505b5080516000036119df57604051632bfa23e760e11b81526001600160a01b0386166004820152602401610449565b805181602001fd5b6001600160e01b0319811663f23a6e6160e01b1461127957604051632bfa23e760e11b81526001600160a01b0386166004820152602401610449565b6001600160a01b0384163b1561082d5760405163bc197c8160e01b81526001600160a01b0385169063bc197c8190611a679089908990889088908890600401612828565b6020604051808303816000875af1925050508015611aa2575060408051601f3d908101601f19168201909252611a9f9181019061280b565b60015b611ad0573d8080156119ac576040519150601f19603f3d011682016040523d82523d6000602084013e6119b1565b6001600160e01b0319811663bc197c8160e01b1461127957604051632bfa23e760e11b81526001600160a01b0386166004820152602401610449565b6000818310611b1b5781611b1d565b825b9392505050565b8051825114611b535781518151604051635b05999160e01b815260048101929092526024820152604401610449565b3360005b8351811015611c59576020818102858101820151908501909101516001600160a01b03881615611c0a576000828152602081815260408083206001600160a01b038c16845290915290205481811015611be3576040516303dee4c560e01b81526001600160a01b038a166004820152602481018290526044810183905260648101849052608401610449565b6000838152602081815260408083206001600160a01b038d16845290915290209082900390555b6001600160a01b03871615611c4f576000828152602081815260408083206001600160a01b038b16845290915281208054839290611c499084906127be565b90915550505b5050600101611b57565b508251600103611cda5760208301516000906020840151909150856001600160a01b0316876001600160a01b0316846001600160a01b03167fc3d58168c5ae7397731d063d5bbf3d657854427343f4c083240f7aacaa2d0f628585604051611ccb929190918252602082015260400190565b60405180910390a45050611020565b836001600160a01b0316856001600160a01b0316826001600160a01b03167f4a39dc06d4c0dbc64b70af90fd698a233a518aa5d07e595d983b8c0526c8f7fb8686604051611d2992919061287a565b60405180910390a45050505050565b508054611d4490612399565b6000825580601f10611d54575050565b601f016020900490600052602060002090810190611d729190611d75565b50565b5b80821115611d8a5760008155600101611d76565b5090565b80356001600160a01b03811681146116f857600080fd5b60008060408385031215611db857600080fd5b611dc183611d8e565b946020939093013593505050565b6001600160e01b031981168114611d7257600080fd5b600060208284031215611df757600080fd5b8135611b1d81611dcf565b600060208284031215611e1457600080fd5b5035919050565b60005b83811015611e36578181015183820152602001611e1e565b50506000910152565b60008151808452611e57816020860160208601611e1b565b601f01601f19169290920160200192915050565b602081526000611b1d6020830184611e3f565b60008060408385031215611e9157600080fd5b50508035926020909101359150565b634e487b7160e01b600052604160045260246000fd5b604051601f8201601f1916810167ffffffffffffffff81118282101715611edf57611edf611ea0565b604052919050565b600067ffffffffffffffff821115611f0157611f01611ea0565b5060051b60200190565b600082601f830112611f1c57600080fd5b81356020611f31611f2c83611ee7565b611eb6565b8083825260208201915060208460051b870101935086841115611f5357600080fd5b602086015b84811015611f6f5780358352918301918301611f58565b509695505050505050565b600082601f830112611f8b57600080fd5b813567ffffffffffffffff811115611fa557611fa5611ea0565b611fb8601f8201601f1916602001611eb6565b818152846020838601011115611fcd57600080fd5b816020850160208301376000918101602001919091529392505050565b600080600080600060a0868803121561200257600080fd5b61200b86611d8e565b945061201960208701611d8e565b9350604086013567ffffffffffffffff8082111561203657600080fd5b61204289838a01611f0b565b9450606088013591508082111561205857600080fd5b61206489838a01611f0b565b9350608088013591508082111561207a57600080fd5b5061208788828901611f7a565b9150509295509295909350565b600080604083850312156120a757600080fd5b823567ffffffffffffffff808211156120bf57600080fd5b818501915085601f8301126120d357600080fd5b813560206120e3611f2c83611ee7565b82815260059290921b8401810191818101908984111561210257600080fd5b948201945b838610156121275761211886611d8e565b82529482019490820190612107565b9650508601359250508082111561213d57600080fd5b5061214a85828601611f0b565b9150509250929050565b60008151808452602080850194506020840160005b8381101561218557815187529582019590820190600101612169565b509495945050505050565b602081526000611b1d6020830184612154565b80356001600160601b03811681146116f857600080fd5b600080600080600080600060e0888a0312156121d557600080fd5b873567ffffffffffffffff808211156121ed57600080fd5b6121f98b838c01611f7a565b985060208a013591508082111561220f57600080fd5b61221b8b838c01611f7a565b975060408a013591508082111561223157600080fd5b61223d8b838c01611f7a565b965060608a0135955061225260808b016121a3565b945061226060a08b01611d8e565b935060c08a013591508082111561227657600080fd5b506122838a828b01611f7a565b91505092959891949750929550565b600080604083850312156122a557600080fd5b6122ae83611d8e565b9150602083013580151581146122c357600080fd5b809150509250929050565b600080604083850312156122e157600080fd5b6122ea83611d8e565b91506122f860208401611d8e565b90509250929050565b600080600080600060a0868803121561231957600080fd5b61232286611d8e565b945061233060208701611d8e565b93506040860135925060608601359150608086013567ffffffffffffffff81111561235a57600080fd5b61208788828901611f7a565b60008060006060848603121561237b57600080fd5b61238484611d8e565b95602085013595506040909401359392505050565b600181811c908216806123ad57607f821691505b6020821081036123cd57634e487b7160e01b600052602260045260246000fd5b50919050565b6a3d90113730b6b2911d101160a91b815283516000906123fa81600b850160208901611e1b565b6201116160ed1b600b9184019182018190526f0113232b9b1b934b83a34b7b711101d160851b600e830152601160f91b601e8301819052865161244481601f860160208b01611e1b565b601f9301928301919091526c0113a32bc3a2fbab93491101d1609d1b6022830152602f8201819052845190612480826030850160208901611e1b565b91016030810191909152607d60f81b6031820152603281019695505050505050565b7f646174613a6170706c69636174696f6e2f6a736f6e3b6261736536342c0000008152600082516124da81601d850160208701611e1b565b91909101601d0192915050565b634e487b7160e01b600052601160045260246000fd5b80820281158282048414176103ae576103ae6124e7565b60008261253157634e487b7160e01b600052601260045260246000fd5b500490565b634e487b7160e01b600052603260045260246000fd5b60006001820161255e5761255e6124e7565b5060010190565b601f821115610dcc576000816000526020600020601f850160051c8101602086101561258e5750805b601f850160051c820191505b8181101561082d5782815560010161259a565b815167ffffffffffffffff8111156125c7576125c7611ea0565b6125db816125d58454612399565b84612565565b602080601f83116001811461261057600084156125f85750858301515b600019600386901b1c1916600185901b17855561082d565b600085815260208120601f198616915b8281101561263f57888601518255948401946001909101908401612620565b508582101561265d5787850151600019600388901b60f8161c191681555b5050505050600190811b01905550565b6000815461267a81612399565b6001828116801561269257600181146126a7576126d6565b60ff19841687528215158302870194506126d6565b8560005260208060002060005b858110156126cd5781548a8201529084019082016126b4565b50505082870194505b5050505092915050565b607b60f81b815268113730b6b2911d101160b91b6001820152845160009061270f81600a850160208a01611e1b565b6201116160ed1b600a9184019182018190526e0113232b9b1b934b83a34b7b7111d1608d1b600d830152601160f91b601c830152865161275681601d850160208b01611e1b565b601d920191820152691134b6b0b3b2911d101160b11b602082015261277e602a82018661266d565b741116101132bc3a32b93730b62fb634b735911d101160591b815290506127a8601582018561266d565b61227d60f01b8152600201979650505050505050565b808201808211156103ae576103ae6124e7565b6001600160a01b03868116825285166020820152604081018490526060810183905260a0608082018190526000906115fa90830184611e3f565b60006020828403121561281d57600080fd5b8151611b1d81611dcf565b6001600160a01b0386811682528516602082015260a06040820181905260009061285490830186612154565b82810360608401526128668186612154565b90508281036080840152610b238185611e3f565b60408152600061288d6040830185612154565b828103602084015261289f8185612154565b9594505050505056fe4142434445464748494a4b4c4d4e4f505152535455565758595a6162636465666768696a6b6c6d6e6f707172737475767778797a303132333435363738392b2fa2646970667358221220bf29cf8e828adbb0d3d6a266794e4b5e9a1c874e366dc87aeb238220983454d564736f6c63430008180033",
    "linkReferences": {},
    "deployedLinkReferences": {}
}